Archive member included to satisfy reference by file (symbol)

/home/binhnt/opt/gcc-arm-none-eabi-5_4-2016q3/arm-none-eabi/lib/armv7-m/libc.a(lib_a-malloc.o)
                              build_enddevice_f103_stm32f10x/mini_cpp.o (malloc)
/home/binhnt/opt/gcc-arm-none-eabi-5_4-2016q3/arm-none-eabi/lib/armv7-m/libc.a(lib_a-mallocr.o)
                              /home/binhnt/opt/gcc-arm-none-eabi-5_4-2016q3/arm-none-eabi/lib/armv7-m/libc.a(lib_a-malloc.o) (_malloc_r)
/home/binhnt/opt/gcc-arm-none-eabi-5_4-2016q3/arm-none-eabi/lib/armv7-m/libc.a(lib_a-memcpy.o)
                              build_enddevice_f103_stm32f10x/LoRaMac.o (memcpy)
/home/binhnt/opt/gcc-arm-none-eabi-5_4-2016q3/arm-none-eabi/lib/armv7-m/libc.a(lib_a-memset.o)
                              build_enddevice_f103_stm32f10x/LoRaMac.o (memset)
/home/binhnt/opt/gcc-arm-none-eabi-5_4-2016q3/arm-none-eabi/lib/armv7-m/libc.a(lib_a-mlock.o)
                              /home/binhnt/opt/gcc-arm-none-eabi-5_4-2016q3/arm-none-eabi/lib/armv7-m/libc.a(lib_a-mallocr.o) (__malloc_lock)
/home/binhnt/opt/gcc-arm-none-eabi-5_4-2016q3/arm-none-eabi/lib/armv7-m/libc.a(lib_a-sbrkr.o)
                              /home/binhnt/opt/gcc-arm-none-eabi-5_4-2016q3/arm-none-eabi/lib/armv7-m/libc.a(lib_a-mallocr.o) (_sbrk_r)
/home/binhnt/opt/gcc-arm-none-eabi-5_4-2016q3/arm-none-eabi/lib/armv7-m/libc.a(lib_a-strlen-stub.o)
                              build_enddevice_f103_stm32f10x/Print.o (strlen)
/home/binhnt/opt/gcc-arm-none-eabi-5_4-2016q3/arm-none-eabi/lib/armv7-m/libc.a(lib_a-freer.o)
                              /home/binhnt/opt/gcc-arm-none-eabi-5_4-2016q3/arm-none-eabi/lib/armv7-m/libc.a(lib_a-malloc.o) (_free_r)
/home/binhnt/opt/gcc-arm-none-eabi-5_4-2016q3/arm-none-eabi/lib/armv7-m/libc.a(lib_a-impure.o)
                              /home/binhnt/opt/gcc-arm-none-eabi-5_4-2016q3/arm-none-eabi/lib/armv7-m/libc.a(lib_a-malloc.o) (_impure_ptr)
/home/binhnt/opt/gcc-arm-none-eabi-5_4-2016q3/arm-none-eabi/lib/armv7-m/libc.a(lib_a-reent.o)
                              /home/binhnt/opt/gcc-arm-none-eabi-5_4-2016q3/arm-none-eabi/lib/armv7-m/libc.a(lib_a-sbrkr.o) (errno)
/home/binhnt/opt/gcc-arm-none-eabi-5_4-2016q3/arm-none-eabi/lib/armv7-m/libm.a(lib_a-s_ceil.o)
                              build_enddevice_f103_stm32f10x/LoRaMac.o (ceil)
/home/binhnt/opt/gcc-arm-none-eabi-5_4-2016q3/arm-none-eabi/lib/armv7-m/libm.a(lib_a-s_floor.o)
                              build_enddevice_f103_stm32f10x/sx1276.o (floor)
/home/binhnt/opt/gcc-arm-none-eabi-5_4-2016q3/lib/gcc/arm-none-eabi/5.4.1/armv7-m/libgcc.a(_arm_addsubdf3.o)
                              build_enddevice_f103_stm32f10x/LoRaMac.o (__aeabi_dsub)
/home/binhnt/opt/gcc-arm-none-eabi-5_4-2016q3/lib/gcc/arm-none-eabi/5.4.1/armv7-m/libgcc.a(_arm_muldivdf3.o)
                              build_enddevice_f103_stm32f10x/LoRaMac.o (__aeabi_dmul)
/home/binhnt/opt/gcc-arm-none-eabi-5_4-2016q3/lib/gcc/arm-none-eabi/5.4.1/armv7-m/libgcc.a(_arm_cmpdf2.o)
                              build_enddevice_f103_stm32f10x/LoRaMac.o (__aeabi_dcmplt)
/home/binhnt/opt/gcc-arm-none-eabi-5_4-2016q3/lib/gcc/arm-none-eabi/5.4.1/armv7-m/libgcc.a(_arm_unorddf2.o)
                              build_enddevice_f103_stm32f10x/Print.o (__aeabi_dcmpun)
/home/binhnt/opt/gcc-arm-none-eabi-5_4-2016q3/lib/gcc/arm-none-eabi/5.4.1/armv7-m/libgcc.a(_arm_fixdfsi.o)
                              build_enddevice_f103_stm32f10x/LoRaMac.o (__aeabi_d2iz)
/home/binhnt/opt/gcc-arm-none-eabi-5_4-2016q3/lib/gcc/arm-none-eabi/5.4.1/armv7-m/libgcc.a(_arm_fixunsdfsi.o)
                              build_enddevice_f103_stm32f10x/LoRaMac.o (__aeabi_d2uiz)

Allocating common symbols
Common symbol       size              file

ak_timer_payload_irq
                    0x8               build_enddevice_f103_stm32f10x/timer.o
errno               0x4               /home/binhnt/opt/gcc-arm-none-eabi-5_4-2016q3/arm-none-eabi/lib/armv7-m/libc.a(lib_a-reent.o)
log_task_dbg_object_queue
                    0x24              build_enddevice_f103_stm32f10x/task.o
system_info         0x24              build_enddevice_f103_stm32f10x/system.o
xfunc_out           0x4               build_enddevice_f103_stm32f10x/xprintf.o

Discarded input sections

 .text          0x00000000        0x0 build_enddevice_f103_stm32f10x/message.o
 .data          0x00000000        0x0 build_enddevice_f103_stm32f10x/message.o
 .bss           0x00000000        0x0 build_enddevice_f103_stm32f10x/message.o
 .text.get_common_msg_pool_used
                0x00000000       0x18 build_enddevice_f103_stm32f10x/message.o
 .text.get_data_len_common_msg
                0x00000000       0x1c build_enddevice_f103_stm32f10x/message.o
 .text.get_pure_msg_pool_used
                0x00000000       0x18 build_enddevice_f103_stm32f10x/message.o
 .text.get_dynamic_msg
                0x00000000       0x4c build_enddevice_f103_stm32f10x/message.o
 .text.get_dynamic_msg_pool_used
                0x00000000       0x18 build_enddevice_f103_stm32f10x/message.o
 .text.set_data_dynamic_msg
                0x00000000       0xa4 build_enddevice_f103_stm32f10x/message.o
 .text.get_data_dynamic_msg
                0x00000000       0x54 build_enddevice_f103_stm32f10x/message.o
 .text.get_data_len_dynamic_msg
Memory Configuration

Name             Origin             Length             Attributes
FLASH            0x08000000         0x00010000         xr
SRAM             0x20000000         0x00005000         xrw
*default*        0x00000000         0xffffffff

Linker script and memory map

                0x00000000                HEAP_SIZE = 0x0

.start_flash    0x08000000        0x0
                0x08000000                _start_flash = .

.isr_vector     0x08000000       0xec
 *(.isr_vector)
 .isr_vector    0x08000000       0xec build_enddevice_f103_stm32f10x/system.o
                0x08000000                isr_vector
                0x080000ec                . = ALIGN (0x4)

.text           0x080000f0     0x78e0
                0x080000f0                . = ALIGN (0x4)
 *(.text)
 .text          0x080000f0       0xec /home/binhnt/opt/gcc-arm-none-eabi-5_4-2016q3/arm-none-eabi/lib/armv7-m/libc.a(lib_a-memcpy.o)
                0x080000f0                memcpy
 .text          0x080001dc      0x370 /home/binhnt/opt/gcc-arm-none-eabi-5_4-2016q3/lib/gcc/arm-none-eabi/5.4.1/armv7-m/libgcc.a(_arm_addsubdf3.o)
                0x080001dc                __aeabi_drsub
                0x080001e4                __aeabi_dsub
                0x080001e4                __subdf3
                0x080001e8                __adddf3
                0x080001e8                __aeabi_dadd
                0x08000460                __aeabi_ui2d
                0x08000460                __floatunsidf
                0x08000480                __floatsidf
                0x08000480                __aeabi_i2d
                0x080004a4                __extendsfdf2
                0x080004a4                __aeabi_f2d
                0x080004e0                __aeabi_ul2d
                0x080004e0                __floatundidf
                0x080004f0                __floatdidf
                0x080004f0                __aeabi_l2d
 .text          0x0800054c      0x424 /home/binhnt/opt/gcc-arm-none-eabi-5_4-2016q3/lib/gcc/arm-none-eabi/5.4.1/armv7-m/libgcc.a(_arm_muldivdf3.o)
                0x0800054c                __aeabi_dmul
                0x0800054c                __muldf3
                0x080007a0                __aeabi_ddiv
                0x080007a0                __divdf3
 .text          0x08000970      0x110 /home/binhnt/opt/gcc-arm-none-eabi-5_4-2016q3/lib/gcc/arm-none-eabi/5.4.1/armv7-m/libgcc.a(_arm_cmpdf2.o)
                0x08000970                __gtdf2
                0x08000970                __gedf2
                0x08000978                __ltdf2
                0x08000978                __ledf2
                0x08000980                __cmpdf2
                0x08000980                __eqdf2
                0x08000980                __nedf2
                0x080009fc                __aeabi_cdrcmple
                0x08000a0c                __aeabi_cdcmple
                0x08000a0c                __aeabi_cdcmpeq
                0x08000a1c                __aeabi_dcmpeq
                0x08000a30                __aeabi_dcmplt
                0x08000a44                __aeabi_dcmple
                0x08000a58                __aeabi_dcmpge
                0x08000a6c                __aeabi_dcmpgt
 .text          0x08000a80       0x50 /home/binhnt/opt/gcc-arm-none-eabi-5_4-2016q3/lib/gcc/arm-none-eabi/5.4.1/armv7-m/libgcc.a(_arm_fixdfsi.o)
                0x08000a80                __fixdfsi
                0x08000a80                __aeabi_d2iz
 .text          0x08000ad0       0x40 /home/binhnt/opt/gcc-arm-none-eabi-5_4-2016q3/lib/gcc/arm-none-eabi/5.4.1/armv7-m/libgcc.a(_arm_fixunsdfsi.o)
                0x08000ad0                __fixunsdfsi
                0x08000ad0                __aeabi_d2uiz
 *(.text*)
 .text.msg_init
                0x08000b10       0xf8 build_enddevice_f103_stm32f10x/message.o
                0x08000b10                msg_init
 .text.msg_inc_ref_count
                0x08000c08       0x1c build_enddevice_f103_stm32f10x/message.o
                0x08000c08                msg_inc_ref_count
 .text.msg_dec_ref_count
                0x08000c24       0x18 build_enddevice_f103_stm32f10x/message.o
                0x08000c24                msg_dec_ref_count
 .text.msg_free
                0x08000c3c       0x94 build_enddevice_f103_stm32f10x/message.o
                0x08000c3c                msg_free
 .text.get_common_msg
                0x08000cd0       0x48 build_enddevice_f103_stm32f10x/message.o
                0x08000cd0                get_common_msg
 .text.set_data_common_msg
                0x08000d18       0x38 build_enddevice_f103_stm32f10x/message.o
                0x08000d18                set_data_common_msg
 .text.get_data_common_msg
                0x08000d50       0x28 build_enddevice_f103_stm32f10x/message.o
                0x08000d50                get_data_common_msg
 .text.get_pure_msg
                0x08000d78       0x48 build_enddevice_f103_stm32f10x/message.o
                0x08000d78                get_pure_msg
 .text.task_sheduler
                0x08000dc0       0xd8 build_enddevice_f103_stm32f10x/task.o
 .text.task_create
                0x08000e98       0x30 build_enddevice_f103_stm32f10x/task.o
                0x08000e98                task_create
 .text.task_post
                0x08000ec8       0x7c build_enddevice_f103_stm32f10x/task.o
                0x08000ec8                task_post
 .text.task_init
                0x08000f44       0x40 build_enddevice_f103_stm32f10x/task.o
                0x08000f44                task_init
 .text.task_run
                0x08000f84       0x48 build_enddevice_f103_stm32f10x/task.o
                0x08000f84                task_run
 .text.get_current_task_id
                0x08000fcc        0xc build_enddevice_f103_stm32f10x/task.o
                0x08000fcc                get_current_task_id
 .text.get_current_active_object
                0x08000fd8        0x8 build_enddevice_f103_stm32f10x/task.o
                0x08000fd8                get_current_active_object
 .text.timer_init
                0x08000fe0       0x48 build_enddevice_f103_stm32f10x/timer.o
                0x08000fe0                timer_init
 .text.timer_tick
                0x08001028       0x40 build_enddevice_f103_stm32f10x/timer.o
                0x08001028                timer_tick
 .text.timer_set
                0x08001068       0x98 build_enddevice_f103_stm32f10x/timer.o
                0x08001068                timer_set
 .text.timer_remove_attr
                0x08001100       0x58 build_enddevice_f103_stm32f10x/timer.o
                0x08001100                timer_remove_attr
 .text.task_timer_tick
                0x08001158       0x7c build_enddevice_f103_stm32f10x/timer.o
                0x08001158                task_timer_tick
 .text.xor_block
                0x080011d4       0x82 build_enddevice_f103_stm32f10x/aes.o
 .text.copy_and_key
                0x08001256       0x84 build_enddevice_f103_stm32f10x/aes.o
 *fill*         0x080012da        0x2 
 .text.aes_set_key
                0x080012dc       0xfc build_enddevice_f103_stm32f10x/aes.o
                0x080012dc                aes_set_key
 .text.aes_encrypt
                0x080013d8      0x2d4 build_enddevice_f103_stm32f10x/aes.o
                0x080013d8                aes_encrypt
 .text.AES_CMAC_Init
                0x080016ac       0x20 build_enddevice_f103_stm32f10x/cmac.o
                0x080016ac                AES_CMAC_Init
 .text.AES_CMAC_SetKey
                0x080016cc        0xc build_enddevice_f103_stm32f10x/cmac.o
                0x080016cc                AES_CMAC_SetKey
 .text.AES_CMAC_Update
                0x080016d8       0xbe build_enddevice_f103_stm32f10x/cmac.o
                0x080016d8                AES_CMAC_Update
 .text.AES_CMAC_Final
                0x08001796      0x14a build_enddevice_f103_stm32f10x/cmac.o
                0x08001796                AES_CMAC_Final
 .text.mem_set  0x080018e0       0x12 build_enddevice_f103_stm32f10x/utils.o
                0x080018e0                mem_set
 .text.mem_cpy  0x080018f2       0x14 build_enddevice_f103_stm32f10x/utils.o
                0x080018f2                mem_cpy
 .text.mem_read
                0x08001906       0x16 build_enddevice_f103_stm32f10x/utils.o
                0x08001906                mem_read
 .text.mem_write
                0x0800191c       0x16 build_enddevice_f103_stm32f10x/utils.o
                0x0800191c                mem_write
 .text.str_cmp  0x08001932       0x28 build_enddevice_f103_stm32f10x/utils.o
                0x08001932                str_cmp
 *fill*         0x0800195a        0x2 
 .text.xputc    0x0800195c       0x24 build_enddevice_f103_stm32f10x/xprintf.o
                0x0800195c                xputc
 .text.xprintf  0x08001980      0x122 build_enddevice_f103_stm32f10x/xprintf.o
                0x08001980                xprintf
 *fill*         0x08001aa2        0x2 
 .text.set_dymc_output_type
                0x08001aa4       0x14 build_enddevice_f103_stm32f10x/xprintf.o
                0x08001aa4                set_dymc_output_type
 .text.xdymcprintf
                0x08001ab8      0x170 build_enddevice_f103_stm32f10x/xprintf.o
                0x08001ab8                xdymcprintf
 .text.cmd_line_parser
                0x08001c28       0x7c build_enddevice_f103_stm32f10x/cmd_line.o
                0x08001c28                cmd_line_parser
 .text.log_queue_init
                0x08001ca4       0x2e build_enddevice_f103_stm32f10x/log_queue.o
                0x08001ca4                log_queue_init
 .text.log_queue_put
                0x08001cd2       0x58 build_enddevice_f103_stm32f10x/log_queue.o
                0x08001cd2                log_queue_put
 .text.led_init
                0x08001d2a       0x20 build_enddevice_f103_stm32f10x/led.o
                0x08001d2a                led_init
 .text.led_on   0x08001d4a        0xc build_enddevice_f103_stm32f10x/led.o
                0x08001d4a                led_on
 .text.led_off  0x08001d56        0xc build_enddevice_f103_stm32f10x/led.o
                0x08001d56                led_off
 .text.led_toggle
                0x08001d62       0x12 build_enddevice_f103_stm32f10x/led.o
                0x08001d62                led_toggle
 .text.led_blink_set
                0x08001d74       0x18 build_enddevice_f103_stm32f10x/led.o
                0x08001d74                led_blink_set
 .text.led_blink_reset
                0x08001d8c       0x14 build_enddevice_f103_stm32f10x/led.o
                0x08001d8c                led_blink_reset
 .text.led_blink_polling
                0x08001da0       0x32 build_enddevice_f103_stm32f10x/led.o
                0x08001da0                led_blink_polling
 .text.button_init
                0x08001dd2       0x32 build_enddevice_f103_stm32f10x/button.o
                0x08001dd2                button_init
 .text.button_enable
                0x08001e04        0x6 build_enddevice_f103_stm32f10x/button.o
                0x08001e04                button_enable
 .text.button_disable
                0x08001e0a        0x6 build_enddevice_f103_stm32f10x/button.o
                0x08001e0a                button_disable
 .text.button_timer_polling
                0x08001e10       0x8c build_enddevice_f103_stm32f10x/button.o
                0x08001e10                button_timer_polling
 .text.sys_dbg_fatal
                0x08001e9c       0x80 build_enddevice_f103_stm32f10x/sys_dbg.o
                0x08001e9c                sys_dbg_fatal
 .text.SystemInit
                0x08001f1c       0xf4 build_enddevice_f103_stm32f10x/system_stm32f10x.o
                0x08001f1c                SystemInit
 .text.SystemCoreClockUpdate
                0x08002010       0x5c build_enddevice_f103_stm32f10x/system_stm32f10x.o
                0x08002010                SystemCoreClockUpdate
 .text.GPIO_Init
                0x0800206c       0xa4 build_enddevice_f103_stm32f10x/stm32f10x_gpio.o
                0x0800206c                GPIO_Init
 .text.GPIO_ReadInputDataBit
                0x08002110        0xc build_enddevice_f103_stm32f10x/stm32f10x_gpio.o
                0x08002110                GPIO_ReadInputDataBit
 .text.GPIO_SetBits
                0x0800211c        0x4 build_enddevice_f103_stm32f10x/stm32f10x_gpio.o
                0x0800211c                GPIO_SetBits
 .text.GPIO_ResetBits
                0x08002120        0x4 build_enddevice_f103_stm32f10x/stm32f10x_gpio.o
                0x08002120                GPIO_ResetBits
 .text.GPIO_PinRemapConfig
                0x08002124       0x60 build_enddevice_f103_stm32f10x/stm32f10x_gpio.o
                0x08002124                GPIO_PinRemapConfig
 .text.GPIO_EXTILineConfig
                0x08002184       0x2a build_enddevice_f103_stm32f10x/stm32f10x_gpio.o
                0x08002184                GPIO_EXTILineConfig
 *fill*         0x080021ae        0x2 
 .text.RCC_HSICmd
                0x080021b0        0xc build_enddevice_f103_stm32f10x/stm32f10x_rcc.o
                0x080021b0                RCC_HSICmd
 .text.RCC_GetClocksFreq
                0x080021bc       0x88 build_enddevice_f103_stm32f10x/stm32f10x_rcc.o
                0x080021bc                RCC_GetClocksFreq
 .text.RCC_APB2PeriphClockCmd
                0x08002244       0x18 build_enddevice_f103_stm32f10x/stm32f10x_rcc.o
                0x08002244                RCC_APB2PeriphClockCmd
 .text.RCC_APB1PeriphClockCmd
                0x0800225c       0x18 build_enddevice_f103_stm32f10x/stm32f10x_rcc.o
                0x0800225c                RCC_APB1PeriphClockCmd
 .text.RCC_GetFlagStatus
                0x08002274       0x28 build_enddevice_f103_stm32f10x/stm32f10x_rcc.o
                0x08002274                RCC_GetFlagStatus
 .text.USART_Init
                0x0800229c       0xa8 build_enddevice_f103_stm32f10x/stm32f10x_usart.o
                0x0800229c                USART_Init
 .text.USART_Cmd
                0x08002344       0x18 build_enddevice_f103_stm32f10x/stm32f10x_usart.o
                0x08002344                USART_Cmd
 .text.USART_ITConfig
                0x0800235c       0x30 build_enddevice_f103_stm32f10x/stm32f10x_usart.o
                0x0800235c                USART_ITConfig
 .text.USART_SendData
                0x0800238c        0x8 build_enddevice_f103_stm32f10x/stm32f10x_usart.o
                0x0800238c                USART_SendData
 .text.USART_ReceiveData
                0x08002394        0x8 build_enddevice_f103_stm32f10x/stm32f10x_usart.o
                0x08002394                USART_ReceiveData
 .text.USART_GetFlagStatus
                0x0800239c        0xc build_enddevice_f103_stm32f10x/stm32f10x_usart.o
                0x0800239c                USART_GetFlagStatus
 .text.USART_GetITStatus
                0x080023a8       0x40 build_enddevice_f103_stm32f10x/stm32f10x_usart.o
                0x080023a8                USART_GetITStatus
 .text.USART_ClearITPendingBit
                0x080023e8       0x10 build_enddevice_f103_stm32f10x/stm32f10x_usart.o
                0x080023e8                USART_ClearITPendingBit
 .text.SPI_Init
                0x080023f8       0x3e build_enddevice_f103_stm32f10x/stm32f10x_spi.o
                0x080023f8                SPI_Init
 .text.SPI_Cmd  0x08002436       0x18 build_enddevice_f103_stm32f10x/stm32f10x_spi.o
                0x08002436                SPI_Cmd
 .text.SPI_I2S_SendData
                0x0800244e        0x4 build_enddevice_f103_stm32f10x/stm32f10x_spi.o
                0x0800244e                SPI_I2S_SendData
 .text.SPI_I2S_ReceiveData
                0x08002452        0x6 build_enddevice_f103_stm32f10x/stm32f10x_spi.o
                0x08002452                SPI_I2S_ReceiveData
 .text.SPI_I2S_GetFlagStatus
                0x08002458        0xc build_enddevice_f103_stm32f10x/stm32f10x_spi.o
                0x08002458                SPI_I2S_GetFlagStatus
 .text.NVIC_PriorityGroupConfig
                0x08002464       0x14 build_enddevice_f103_stm32f10x/misc.o
                0x08002464                NVIC_PriorityGroupConfig
 .text.NVIC_Init
                0x08002478       0x6c build_enddevice_f103_stm32f10x/misc.o
                0x08002478                NVIC_Init
 .text.EXTI_Init
                0x080024e4       0x74 build_enddevice_f103_stm32f10x/stm32f10x_exti.o
                0x080024e4                EXTI_Init
 .text.EXTI_GetITStatus
                0x08002558       0x1c build_enddevice_f103_stm32f10x/stm32f10x_exti.o
                0x08002558                EXTI_GetITStatus
 .text.EXTI_ClearITPendingBit
                0x08002574        0xc build_enddevice_f103_stm32f10x/stm32f10x_exti.o
                0x08002574                EXTI_ClearITPendingBit
 .text.TIM_TimeBaseInit
                0x08002580       0x94 build_enddevice_f103_stm32f10x/stm32f10x_tim.o
                0x08002580                TIM_TimeBaseInit
 .text.TIM_Cmd  0x08002614       0x18 build_enddevice_f103_stm32f10x/stm32f10x_tim.o
                0x08002614                TIM_Cmd
 .text.TIM_DMACmd
                0x0800262c       0x12 build_enddevice_f103_stm32f10x/stm32f10x_tim.o
                0x0800262c                TIM_DMACmd
 .text.TIM_ITConfig
                0x0800263e        0x4 build_enddevice_f103_stm32f10x/stm32f10x_tim.o
                0x0800263e                TIM_ITConfig
 .text.TIM_GetITStatus
                0x08002642       0x16 build_enddevice_f103_stm32f10x/stm32f10x_tim.o
                0x08002642                TIM_GetITStatus
 .text.TIM_ClearITPendingBit
                0x08002658        0x8 build_enddevice_f103_stm32f10x/stm32f10x_tim.o
                0x08002658                TIM_ClearITPendingBit
 .text.IWDG_WriteAccessCmd
                0x08002660        0xc build_enddevice_f103_stm32f10x/stm32f10x_iwdg.o
                0x08002660                IWDG_WriteAccessCmd
 .text.IWDG_SetPrescaler
                0x0800266c        0xc build_enddevice_f103_stm32f10x/stm32f10x_iwdg.o
                0x0800266c                IWDG_SetPrescaler
 .text.IWDG_SetReload
                0x08002678        0xc build_enddevice_f103_stm32f10x/stm32f10x_iwdg.o
                0x08002678                IWDG_SetReload
 .text.IWDG_ReloadCounter
                0x08002684       0x10 build_enddevice_f103_stm32f10x/stm32f10x_iwdg.o
                0x08002684                IWDG_ReloadCounter
 .text.IWDG_Enable
                0x08002694       0x10 build_enddevice_f103_stm32f10x/stm32f10x_iwdg.o
                0x08002694                IWDG_Enable
 .text.disable_interrupts
                0x080026a4        0x4 build_enddevice_f103_stm32f10x/stm32.o
                0x080026a4                disable_interrupts
 .text.entry_critical
                0x080026a8       0x14 build_enddevice_f103_stm32f10x/stm32.o
                0x080026a8                entry_critical
 .text.exit_critical
                0x080026bc       0x18 build_enddevice_f103_stm32f10x/stm32.o
                0x080026bc                exit_critical
 .text.shell_handler
                0x080026d4       0x20 build_enddevice_f103_stm32f10x/system.o
 .text.default_handler
                0x080026f4        0xc build_enddevice_f103_stm32f10x/system.o
                0x080026f4                svc_handler
                0x080026f4                default_handler
                0x080026f4                dg_monitor_handler
                0x080026f4                pendsv_handler
 .text.nmi_handler
                0x08002700        0xc build_enddevice_f103_stm32f10x/system.o
                0x08002700                nmi_handler
 .text.hard_fault_handler
                0x0800270c        0xc build_enddevice_f103_stm32f10x/system.o
                0x0800270c                hard_fault_handler
 .text.mem_manage_handler
                0x08002718        0xc build_enddevice_f103_stm32f10x/system.o
                0x08002718                mem_manage_handler
 .text.bus_fault_handler
                0x08002724        0xc build_enddevice_f103_stm32f10x/system.o
                0x08002724                bus_fault_handler
 .text.usage_fault_handler
                0x08002730        0xc build_enddevice_f103_stm32f10x/system.o
                0x08002730                usage_fault_handler
 .text.systick_handler
                0x0800273c       0x3c build_enddevice_f103_stm32f10x/system.o
                0x0800273c                systick_handler
 .text.exti_line15_10_irq
                0x08002778       0x1e build_enddevice_f103_stm32f10x/system.o
                0x08002778                exti_line15_10_irq
 *fill*         0x08002796        0x2 
 .text.timer4_irq
                0x08002798       0x24 build_enddevice_f103_stm32f10x/system.o
                0x08002798                timer4_irq
 .text.sys_ctrl_delay
                0x080027bc        0x8 build_enddevice_f103_stm32f10x/system.o
                0x080027bc                sys_ctrl_delay
 .text.reset_handler
                0x080027c4       0xd0 build_enddevice_f103_stm32f10x/system.o
                0x080027c4                reset_handler
 .text.sys_ctrl_millis
                0x08002894       0x1c build_enddevice_f103_stm32f10x/system.o
                0x08002894                sys_ctrl_millis
 .text._init    0x080028b0        0x2 build_enddevice_f103_stm32f10x/system.o
                0x080028b0                _init
 *fill*         0x080028b2        0x2 
 .text.xputchar
                0x080028b4       0x1c build_enddevice_f103_stm32f10x/sys_cfg.o
 .text.sys_cfg_clock
                0x080028d0       0x1a build_enddevice_f103_stm32f10x/sys_cfg.o
                0x080028d0                sys_cfg_clock
 *fill*         0x080028ea        0x2 
 .text.sys_cfg_tick
                0x080028ec       0x38 build_enddevice_f103_stm32f10x/sys_cfg.o
                0x080028ec                sys_cfg_tick
 .text.sys_cfg_console
                0x08002924       0xd4 build_enddevice_f103_stm32f10x/sys_cfg.o
                0x08002924                sys_cfg_console
 .text.sys_cfg_update_info
                0x080029f8      0x14c build_enddevice_f103_stm32f10x/sys_cfg.o
                0x080029f8                sys_cfg_update_info
 .text.sys_ctrl_shell_get_char
                0x08002b44       0x24 build_enddevice_f103_stm32f10x/sys_cfg.o
                0x08002b44                sys_ctrl_shell_get_char
 .text.sys_ctrl_reset
                0x08002b68       0x20 build_enddevice_f103_stm32f10x/sys_cfg.o
                0x08002b68                sys_ctrl_reset
 .text.sys_ctrl_delay_us
                0x08002b88       0x28 build_enddevice_f103_stm32f10x/sys_cfg.o
                0x08002b88                sys_ctrl_delay_us
 .text.sys_ctrl_delay_ms
                0x08002bb0       0x1a build_enddevice_f103_stm32f10x/sys_cfg.o
                0x08002bb0                sys_ctrl_delay_ms
 .text.sys_ctrl_independent_watchdog_init
                0x08002bca       0x2e build_enddevice_f103_stm32f10x/sys_cfg.o
                0x08002bca                sys_ctrl_independent_watchdog_init
 .text.sys_ctrl_independent_watchdog_reset
                0x08002bf8       0x12 build_enddevice_f103_stm32f10x/sys_cfg.o
                0x08002bf8                sys_ctrl_independent_watchdog_reset
 *fill*         0x08002c0a        0x2 
 .text.sys_ctrl_soft_watchdog_init
                0x08002c0c       0x70 build_enddevice_f103_stm32f10x/sys_cfg.o
                0x08002c0c                sys_ctrl_soft_watchdog_init
 .text.sys_ctrl_soft_watchdog_reset
                0x08002c7c       0x18 build_enddevice_f103_stm32f10x/sys_cfg.o
                0x08002c7c                sys_ctrl_soft_watchdog_reset
 .text.sys_ctrl_soft_watchdog_increase_counter
                0x08002c94       0x28 build_enddevice_f103_stm32f10x/sys_cfg.o
                0x08002c94                sys_ctrl_soft_watchdog_increase_counter
 .text.sys_ctrl_get_firmware_info
                0x08002cbc       0x38 build_enddevice_f103_stm32f10x/sys_cfg.o
                0x08002cbc                sys_ctrl_get_firmware_info
 .text.led_life_init
                0x08002cf4       0x30 build_enddevice_f103_stm32f10x/io_cfg.o
                0x08002cf4                led_life_init
 .text.led_life_on
                0x08002d24       0x10 build_enddevice_f103_stm32f10x/io_cfg.o
                0x08002d24                led_life_on
 .text.led_life_off
                0x08002d34       0x10 build_enddevice_f103_stm32f10x/io_cfg.o
                0x08002d34                led_life_off
 .text.io_button_init
                0x08002d44       0x30 build_enddevice_f103_stm32f10x/io_cfg.o
                0x08002d44                io_button_init
 .text.io_button_read
                0x08002d74        0xc build_enddevice_f103_stm32f10x/io_cfg.o
                0x08002d74                io_button_read
 .text.led_red_init
                0x08002d80       0x30 build_enddevice_f103_stm32f10x/io_cfg.o
                0x08002d80                led_red_init
 .text.led_red_on
                0x08002db0       0x10 build_enddevice_f103_stm32f10x/io_cfg.o
                0x08002db0                led_red_on
 .text.led_red_off
                0x08002dc0       0x10 build_enddevice_f103_stm32f10x/io_cfg.o
                0x08002dc0                led_red_off
 .text.led_green_init
                0x08002dd0       0x30 build_enddevice_f103_stm32f10x/io_cfg.o
                0x08002dd0                led_green_init
 .text.led_green_on
                0x08002e00       0x10 build_enddevice_f103_stm32f10x/io_cfg.o
                0x08002e00                led_green_on
 .text.led_green_off
                0x08002e10       0x10 build_enddevice_f103_stm32f10x/io_cfg.o
                0x08002e10                led_green_off
 .text.spi1_cfg
                0x08002e20       0x9c build_enddevice_f103_stm32f10x/io_cfg.o
                0x08002e20                spi1_cfg
 .text.sx1276_io_ctrl_init
                0x08002ebc      0x130 build_enddevice_f103_stm32f10x/io_cfg.o
                0x08002ebc                sx1276_io_ctrl_init
 .text.sx1276_io_irq_ctrl_init
                0x08002fec       0x50 build_enddevice_f103_stm32f10x/io_cfg.o
                0x08002fec                sx1276_io_irq_ctrl_init
 .text.sx1276_cs_low
                0x0800303c        0xc build_enddevice_f103_stm32f10x/io_cfg.o
                0x0800303c                sx1276_cs_low
 .text.sx1276_cs_high
                0x08003048        0xc build_enddevice_f103_stm32f10x/io_cfg.o
                0x08003048                sx1276_cs_high
 .text.sx1276_rst_low
                0x08003054       0x10 build_enddevice_f103_stm32f10x/io_cfg.o
                0x08003054                sx1276_rst_low
 .text.sx1276_rst_to_input
                0x08003064       0x28 build_enddevice_f103_stm32f10x/io_cfg.o
                0x08003064                sx1276_rst_to_input
 .text.sx1276_transfer
                0x0800308c       0x34 build_enddevice_f103_stm32f10x/io_cfg.o
                0x0800308c                sx1276_transfer
 .text._ZL13RxWindowSetupmamtb
                0x080030c0       0xf4 build_enddevice_f103_stm32f10x/LoRaMac.o
 .text._ZL21ValidatePayloadLengthhah
                0x080031b4       0x28 build_enddevice_f103_stm32f10x/LoRaMac.o
 .text._ZL9AdrNextDrbbPa
                0x080031dc       0x58 build_enddevice_f103_stm32f10x/LoRaMac.o
 .text._ZL18ResetMacParametersv
                0x08003234       0xdc build_enddevice_f103_stm32f10x/LoRaMac.o
 .text._ZL25ComputeRxWindowParametersam
                0x08003310      0x12c build_enddevice_f103_stm32f10x/LoRaMac.o
 .text._ZL17AlternateDataratet
                0x0800343c       0x40 build_enddevice_f103_stm32f10x/LoRaMac.o
 .text._ZL19TimerGetElapsedTimem
                0x0800347c       0x1a build_enddevice_f103_stm32f10x/LoRaMac.o
 *fill*         0x08003496        0x2 
 .text.OnRxWindow1TimerEvent
                0x08003498       0x58 build_enddevice_f103_stm32f10x/LoRaMac.o
                0x08003498                OnRxWindow1TimerEvent
 .text.OnRxWindow2TimerEvent
                0x080034f0       0x4c build_enddevice_f103_stm32f10x/LoRaMac.o
                0x080034f0                OnRxWindow2TimerEvent
 .text._ZL16OnRadioRxTimeoutv
                0x0800353c       0x58 build_enddevice_f103_stm32f10x/LoRaMac.o
 .text._ZL16OnRadioTxTimeoutv
                0x08003594       0x40 build_enddevice_f103_stm32f10x/LoRaMac.o
 .text._ZL14OnRadioRxErrorv
                0x080035d4       0x7c build_enddevice_f103_stm32f10x/LoRaMac.o
 .text._ZL13OnRadioTxDonev
                0x08003650      0x1b8 build_enddevice_f103_stm32f10x/LoRaMac.o
 .text.OnAckTimeoutTimerEvent
                0x08003808       0x48 build_enddevice_f103_stm32f10x/LoRaMac.o
                0x08003808                OnAckTimeoutTimerEvent
 .text._ZL18PrepareRxDoneAbortv
                0x08003850       0x3c build_enddevice_f103_stm32f10x/LoRaMac.o
 .text._Z12PrepareFrameP14uLoRaMacHeaderP17uLoRaMacFrameCtrlhPvt
                0x0800388c      0x354 build_enddevice_f103_stm32f10x/LoRaMac.o
                0x0800388c                PrepareFrame(uLoRaMacHeader*, uLoRaMacFrameCtrl*, unsigned char, void*, unsigned short)
 .text._Z18SendFrameOnChannel14sChannelParams
                0x08003be0      0x19c build_enddevice_f103_stm32f10x/LoRaMac.o
                0x08003be0                SendFrameOnChannel(sChannelParams)
 .text._ZL10ScheduleTxv
                0x08003d7c      0x240 build_enddevice_f103_stm32f10x/LoRaMac.o
 .text.OnTxDelayedTimerEvent
                0x08003fbc       0x7c build_enddevice_f103_stm32f10x/LoRaMac.o
                0x08003fbc                OnTxDelayedTimerEvent
 .text.OnMacStateCheckTimerEvent
                0x08004038      0x29c build_enddevice_f103_stm32f10x/LoRaMac.o
                0x08004038                OnMacStateCheckTimerEvent
 .text._Z4SendP14uLoRaMacHeaderhPvt
                0x080042d4       0x44 build_enddevice_f103_stm32f10x/LoRaMac.o
                0x080042d4                Send(uLoRaMacHeader*, unsigned char, void*, unsigned short)
 .text._Z19SetTxContinuousWavet
                0x08004318       0x74 build_enddevice_f103_stm32f10x/LoRaMac.o
                0x08004318                SetTxContinuousWave(unsigned short)
 .text._Z20SetTxContinuousWave1tmh
                0x0800438c       0x34 build_enddevice_f103_stm32f10x/LoRaMac.o
                0x0800438c                SetTxContinuousWave1(unsigned short, unsigned long, unsigned char)
 .text.LoRaMacInitialization
                0x080043c0      0x150 build_enddevice_f103_stm32f10x/LoRaMac.o
                0x080043c0                LoRaMacInitialization
 .text.LoRaMacQueryTxPossible
                0x08004510       0x98 build_enddevice_f103_stm32f10x/LoRaMac.o
                0x08004510                LoRaMacQueryTxPossible
 .text.LoRaMacMibGetRequestConfirm
                0x080045a8      0x120 build_enddevice_f103_stm32f10x/LoRaMac.o
                0x080045a8                LoRaMacMibGetRequestConfirm
 .text.LoRaMacMibSetRequestConfirm
                0x080046c8      0x1e4 build_enddevice_f103_stm32f10x/LoRaMac.o
                0x080046c8                LoRaMacMibSetRequestConfirm
 .text.LoRaMacChannelAdd
                0x080048ac       0xc4 build_enddevice_f103_stm32f10x/LoRaMac.o
                0x080048ac                LoRaMacChannelAdd
 .text.LoRaMacChannelRemove
                0x08004970       0x4c build_enddevice_f103_stm32f10x/LoRaMac.o
                0x08004970                LoRaMacChannelRemove
 .text._ZL18ProcessMacCommandsPhhhh
                0x080049bc      0x440 build_enddevice_f103_stm32f10x/LoRaMac.o
 .text._ZL13OnRadioRxDonePhtsa
                0x08004dfc      0x520 build_enddevice_f103_stm32f10x/LoRaMac.o
 .text.LoRaMacMlmeRequest
                0x0800531c      0x158 build_enddevice_f103_stm32f10x/LoRaMac.o
                0x0800531c                LoRaMacMlmeRequest
 .text.LoRaMacMcpsRequest
                0x08005474       0xdc build_enddevice_f103_stm32f10x/LoRaMac.o
                0x08005474                LoRaMacMcpsRequest
 .text.LoRaMacComputeMic
                0x08005550       0x78 build_enddevice_f103_stm32f10x/LoRaMacCrypto.o
                0x08005550                LoRaMacComputeMic
 .text.LoRaMacPayloadEncrypt
                0x080055c8       0xe0 build_enddevice_f103_stm32f10x/LoRaMacCrypto.o
                0x080055c8                LoRaMacPayloadEncrypt
 .text.LoRaMacPayloadDecrypt
                0x080056a8        0xe build_enddevice_f103_stm32f10x/LoRaMacCrypto.o
                0x080056a8                LoRaMacPayloadDecrypt
 *fill*         0x080056b6        0x2 
 .text.LoRaMacJoinComputeMic
                0x080056b8       0x40 build_enddevice_f103_stm32f10x/LoRaMacCrypto.o
                0x080056b8                LoRaMacJoinComputeMic
 .text.LoRaMacJoinDecrypt
                0x080056f8       0x44 build_enddevice_f103_stm32f10x/LoRaMacCrypto.o
                0x080056f8                LoRaMacJoinDecrypt
 .text.LoRaMacJoinComputeSKeys
                0x0800573c       0x90 build_enddevice_f103_stm32f10x/LoRaMacCrypto.o
                0x0800573c                LoRaMacJoinComputeSKeys
 .text.SX1276GetStatus
                0x080057cc        0xc build_enddevice_f103_stm32f10x/sx1276.o
                0x080057cc                SX1276GetStatus
 .text.SX1276GetTimeOnAir
                0x080057d8      0x154 build_enddevice_f103_stm32f10x/sx1276.o
                0x080057d8                SX1276GetTimeOnAir
 .text._Z11SX1276Resetv
                0x0800592c       0x1a build_enddevice_f103_stm32f10x/sx1276.o
                0x0800592c                SX1276Reset()
 .text.SX1276WriteBuffer
                0x08005946       0x30 build_enddevice_f103_stm32f10x/sx1276.o
                0x08005946                SX1276WriteBuffer
 .text.SX1276Write
                0x08005976       0x16 build_enddevice_f103_stm32f10x/sx1276.o
                0x08005976                SX1276Write
 *fill*         0x0800598c        0x4 
 .text.SX1276SetChannel
                0x08005990       0x4c build_enddevice_f103_stm32f10x/sx1276.o
                0x08005990                SX1276SetChannel
 .text.SX1276ReadBuffer
                0x080059dc       0x32 build_enddevice_f103_stm32f10x/sx1276.o
                0x080059dc                SX1276ReadBuffer
 .text.SX1276Read
                0x08005a0e       0x16 build_enddevice_f103_stm32f10x/sx1276.o
                0x08005a0e                SX1276Read
 *fill*         0x08005a24        0x4 
 .text._ZL18RxChainCalibrationv
                0x08005a28       0xa4 build_enddevice_f103_stm32f10x/sx1276.o
 .text.SX1276ReadRssi
                0x08005acc       0x34 build_enddevice_f103_stm32f10x/sx1276.o
                0x08005acc                SX1276ReadRssi
 .text._Z15SX1276SetOpModeh
                0x08005b00       0x1a build_enddevice_f103_stm32f10x/sx1276.o
                0x08005b00                SX1276SetOpMode(unsigned char)
 *fill*         0x08005b1a        0x2 
 .text.SX1276SetSleep
                0x08005b1c       0x24 build_enddevice_f103_stm32f10x/sx1276.o
                0x08005b1c                SX1276SetSleep
 .text.SX1276SetStby
                0x08005b40       0x24 build_enddevice_f103_stm32f10x/sx1276.o
                0x08005b40                SX1276SetStby
 *fill*         0x08005b64        0x4 
 .text.SX1276SetRx
                0x08005b68      0x1cc build_enddevice_f103_stm32f10x/sx1276.o
                0x08005b68                SX1276SetRx
 .text._Z11SX1276SetTxm
                0x08005d34       0x7c build_enddevice_f103_stm32f10x/sx1276.o
                0x08005d34                SX1276SetTx(unsigned long)
 .text.SX1276StartCad
                0x08005db0       0x38 build_enddevice_f103_stm32f10x/sx1276.o
                0x08005db0                SX1276StartCad
 .text.SX1276SetModem
                0x08005de8       0x54 build_enddevice_f103_stm32f10x/sx1276.o
                0x08005de8                SX1276SetModem
 .text.SX1276Init
                0x08005e3c       0x4c build_enddevice_f103_stm32f10x/sx1276.o
                0x08005e3c                SX1276Init
 .text.SX1276IsChannelFree
                0x08005e88       0x34 build_enddevice_f103_stm32f10x/sx1276.o
                0x08005e88                SX1276IsChannelFree
 .text.SX1276Random
                0x08005ebc       0x3e build_enddevice_f103_stm32f10x/sx1276.o
                0x08005ebc                SX1276Random
 *fill*         0x08005efa        0x2 
 .text.SX1276SetRxConfig
                0x08005efc      0x1ec build_enddevice_f103_stm32f10x/sx1276.o
                0x08005efc                SX1276SetRxConfig
 .text.SX1276SetTxConfig
                0x080060e8      0x194 build_enddevice_f103_stm32f10x/sx1276.o
                0x080060e8                SX1276SetTxConfig
 .text.SX1276SetTxContinuousWave
                0x0800627c       0x84 build_enddevice_f103_stm32f10x/sx1276.o
                0x0800627c                SX1276SetTxContinuousWave
 .text._Z15SX1276WriteFifoPhh
                0x08006300        0xa build_enddevice_f103_stm32f10x/sx1276.o
                0x08006300                SX1276WriteFifo(unsigned char*, unsigned char)
 *fill*         0x0800630a        0x2 
 .text.SX1276Send
                0x0800630c       0xa4 build_enddevice_f103_stm32f10x/sx1276.o
                0x0800630c                SX1276Send
 .text._Z14SX1276ReadFifoPhh
                0x080063b0        0xa build_enddevice_f103_stm32f10x/sx1276.o
                0x080063b0                SX1276ReadFifo(unsigned char*, unsigned char)
 *fill*         0x080063ba        0x2 
 .text.SX1276SetMaxPayloadLength
                0x080063bc       0x30 build_enddevice_f103_stm32f10x/sx1276.o
                0x080063bc                SX1276SetMaxPayloadLength
 .text.SX1276SetPublicNetwork
                0x080063ec       0x28 build_enddevice_f103_stm32f10x/sx1276.o
                0x080063ec                SX1276SetPublicNetwork
 .text.SX1276OnTimeoutIrq
                0x08006414       0x74 build_enddevice_f103_stm32f10x/sx1276.o
                0x08006414                SX1276OnTimeoutIrq
 .text.SX1276OnDio0Irq
                0x08006488      0x134 build_enddevice_f103_stm32f10x/sx1276.o
                0x08006488                SX1276OnDio0Irq
 .text.SX1276CheckRfFrequency
                0x080065bc        0x4 build_enddevice_f103_stm32f10x/sx1276_cfg.o
                0x080065bc                SX1276CheckRfFrequency
 .text.SX1276IoIrqInit
                0x080065c0        0x4 build_enddevice_f103_stm32f10x/sx1276_cfg.o
                0x080065c0                SX1276IoIrqInit
 .text.SX1276SetRfTxPower
                0x080065c4       0xa8 build_enddevice_f103_stm32f10x/sx1276_cfg.o
                0x080065c4                SX1276SetRfTxPower
 .text.main_app
                0x0800666c       0xbc build_enddevice_f103_stm32f10x/app.o
                0x0800666c                main_app
 .text.sys_irq_timer_10ms
                0x08006728       0x1c build_enddevice_f103_stm32f10x/app.o
                0x08006728                sys_irq_timer_10ms
 .text._ZL11shell_resetPh
                0x08006744       0x10 build_enddevice_f103_stm32f10x/shell.o
 .text._ZL12shell_rebootPh
                0x08006754        0xa build_enddevice_f103_stm32f10x/shell.o
 *fill*         0x0800675e        0x2 
 .text._ZL10shell_helpPh
                0x08006760       0x30 build_enddevice_f103_stm32f10x/shell.o
 .text._ZL9shell_verPh
                0x08006790       0x3c build_enddevice_f103_stm32f10x/shell.o
 .text._ZL10shell_testPh
                0x080067cc       0x34 build_enddevice_f103_stm32f10x/shell.o
 .text._Z15button_callbackPv
                0x08006800       0x5c build_enddevice_f103_stm32f10x/app_bsp.o
                0x08006800                button_callback(void*)
 .text._ZL14McpsIndicationP15sMcpsIndication
                0x0800685c       0xcc build_enddevice_f103_stm32f10x/lorawan.o
 .text._ZL11McpsConfirmP12sMcpsConfirm
                0x08006928       0x50 build_enddevice_f103_stm32f10x/lorawan.o
 .text._Z12lorawan_initv
                0x08006978       0x84 build_enddevice_f103_stm32f10x/lorawan.o
                0x08006978                lorawan_init()
 .text._Z12lorawan_joinv
                0x080069fc       0x3c build_enddevice_f103_stm32f10x/lorawan.o
                0x080069fc                lorawan_join()
 .text._ZL11MlmeConfirmP12sMlmeConfirm
                0x08006a38       0x40 build_enddevice_f103_stm32f10x/lorawan.o
 .text._Z12lorawan_sendv
                0x08006a78       0x88 build_enddevice_f103_stm32f10x/lorawan.o
                0x08006a78                lorawan_send()
 .text.sys_irq_shell
                0x08006b00       0x74 build_enddevice_f103_stm32f10x/task_shell.o
                0x08006b00                sys_irq_shell
 .text._Z10task_shellP8ak_msg_t
                0x08006b74       0x84 build_enddevice_f103_stm32f10x/task_shell.o
                0x08006b74                task_shell(ak_msg_t*)
 .text._Z9task_lifeP8ak_msg_t
                0x08006bf8       0x20 build_enddevice_f103_stm32f10x/task_life.o
                0x08006bf8                task_life(ak_msg_t*)
 .text._Z12task_loramacP8ak_msg_t
                0x08006c18       0x2e build_enddevice_f103_stm32f10x/task_loramac.o
                0x08006c18                task_loramac(ak_msg_t*)
 .text.sys_irq_sx1276_dio_0
                0x08006c46        0x4 build_enddevice_f103_stm32f10x/task_loramac.o
                0x08006c46                sys_irq_sx1276_dio_0
 *fill*         0x08006c4a        0x2 
 .text._Z7task_uiP8ak_msg_t
                0x08006c4c       0x28 build_enddevice_f103_stm32f10x/task_ui.o
                0x08006c4c                task_ui(ak_msg_t*)
 .text.startup._GLOBAL__sub_I__ZN8SPIClassC2Ev
                0x08006c74       0x10 build_enddevice_f103_stm32f10x/SPI.o
 .text.memset   0x08006c84       0x9c /home/binhnt/opt/gcc-arm-none-eabi-5_4-2016q3/arm-none-eabi/lib/armv7-m/libc.a(lib_a-memset.o)
                0x08006c84                memset
 .text.ceil     0x08006d20      0x110 /home/binhnt/opt/gcc-arm-none-eabi-5_4-2016q3/arm-none-eabi/lib/armv7-m/libm.a(lib_a-s_ceil.o)
                0x08006d20                ceil
 .text.floor    0x08006e30      0x110 /home/binhnt/opt/gcc-arm-none-eabi-5_4-2016q3/arm-none-eabi/lib/armv7-m/libm.a(lib_a-s_floor.o)
                0x08006e30                floor
 *(.rodata)
 *(.rodata*)
 .rodata.str1.1
                0x08006f40        0x3 build_enddevice_f103_stm32f10x/message.o
 .rodata.log2lkup.4672
                0x08006f43      0x100 build_enddevice_f103_stm32f10x/task.o
 .rodata.str1.1
                0x08007043       0x10 build_enddevice_f103_stm32f10x/task.o
 .rodata.str1.1
                0x08007053        0x3 build_enddevice_f103_stm32f10x/timer.o
 .rodata.gfm3_sbox
                0x08007056      0x100 build_enddevice_f103_stm32f10x/aes.o
 .rodata.sbox   0x08007156      0x100 build_enddevice_f103_stm32f10x/aes.o
 .rodata.gfm2_sbox
                0x08007256      0x100 build_enddevice_f103_stm32f10x/aes.o
 .rodata.str1.1
                0x08007356        0x3 build_enddevice_f103_stm32f10x/xprintf.o
 .rodata.str1.1
                0x08007359       0x32 build_enddevice_f103_stm32f10x/sys_dbg.o
 .rodata.str1.1
                0x0800738b        0x3 build_enddevice_f103_stm32f10x/system.o
 .rodata.str1.1
                0x0800738e      0x143 build_enddevice_f103_stm32f10x/sys_cfg.o
                                0x145 (size before relaxing)
 .rodata._ZL8TxPowers
                0x080074d1        0x6 build_enddevice_f103_stm32f10x/LoRaMac.o
 *fill*         0x080074d7        0x1 
 .rodata._ZL10Bandwidths
                0x080074d8       0x20 build_enddevice_f103_stm32f10x/LoRaMac.o
 .rodata._ZL9Datarates
                0x080074f8        0x8 build_enddevice_f103_stm32f10x/LoRaMac.o
 .rodata._ZL28MaxPayloadOfDatarateRepeater
                0x08007500        0x8 build_enddevice_f103_stm32f10x/LoRaMac.o
 .rodata._ZL20MaxPayloadOfDatarate
                0x08007508        0x8 build_enddevice_f103_stm32f10x/LoRaMac.o
 .rodata._ZL13RadioRegsInit
                0x08007510       0x30 build_enddevice_f103_stm32f10x/sx1276.o
 .rodata.str1.1
                0x08007540        0xa build_enddevice_f103_stm32f10x/sx1276.o
 *fill*         0x0800754a        0x6 
 .rodata.CSWTCH.32
                0x08007550       0x18 build_enddevice_f103_stm32f10x/sx1276.o
 .rodata.Radio  0x08007568       0x5c build_enddevice_f103_stm32f10x/sx1276_cfg.o
                0x08007568                Radio
 .rodata.str1.1
                0x080075c4       0x15 build_enddevice_f103_stm32f10x/app.o
 .rodata.str1.1
                0x080075d9       0xd3 build_enddevice_f103_stm32f10x/shell.o
                                 0xd7 (size before relaxing)
 .rodata.str1.1
                0x080076ac       0xcc build_enddevice_f103_stm32f10x/app_bsp.o
 .rodata.str1.1
                0x08007778      0x1e1 build_enddevice_f103_stm32f10x/lorawan.o
 .rodata.str1.1
                0x08007959       0x74 build_enddevice_f103_stm32f10x/task_shell.o
 *(.glue_7)
 .glue_7        0x080079cd        0x0 linker stubs
 *(.glue_7t)
 .glue_7t       0x080079cd        0x0 linker stubs
 *(.init)
 *(.fini)
                0x080079d0                . = ALIGN (0x4)
 *fill*         0x080079cd        0x3 
                0x080079d0                _etext = .

.vfp11_veneer   0x080079d0        0x0
 .vfp11_veneer  0x080079d0        0x0 linker stubs

.v4_bx          0x080079d0        0x0
 .v4_bx         0x080079d0        0x0 linker stubs

.iplt           0x080079d0        0x0
 .iplt          0x080079d0        0x0 build_enddevice_f103_stm32f10x/message.o

.rel.dyn        0x080079d0        0x0
 .rel.iplt      0x080079d0        0x0 build_enddevice_f103_stm32f10x/message.o

.preinit_array  0x080079d0        0x0
                0x080079d0                PROVIDE (__preinit_array_start, .)
 *(SORT(.preinit_array.*))
 *(.preinit_array*)
                0x080079d0                PROVIDE (__preinit_array_end, .)

.init_array     0x080079d0        0x4
                0x080079d0                PROVIDE (__init_array_start, .)
 *(SORT(.init_array.*))
 *(.init_array*)
 .init_array    0x080079d0        0x4 build_enddevice_f103_stm32f10x/SPI.o
                0x080079d4                PROVIDE (__init_array_end, .)

.fini_array     0x080079d4        0x0
                [!provide]                PROVIDE (__fini_array_start, .)
 *(.fini_array*)
 *(SORT(.fini_array.*))
                [!provide]                PROVIDE (__fini_array_end, .)

.end_flash      0x080079d4        0x0
                0x080079d4                _end_flash = .

.start_ram      0x20000000        0x0
                0x20000000                _start_ram = .

.data           0x20000000      0x170 load address 0x080079d4
                0x20000000                _data = .
                0x080079d4                _ldata = LOADADDR (.data)
 *(vtable)
 *(.data)
 *(.data*)
 .data.AHBPrescTable
                0x20000000       0x10 build_enddevice_f103_stm32f10x/system_stm32f10x.o
                0x20000000                AHBPrescTable
 .data.SystemCoreClock
                0x20000010        0x4 build_enddevice_f103_stm32f10x/system_stm32f10x.o
                0x20000010                SystemCoreClock
 .data.ADCPrescTable
                0x20000014        0x4 build_enddevice_f103_stm32f10x/stm32f10x_rcc.o
 .data.APBAHBPrescTable
                0x20000018       0x10 build_enddevice_f103_stm32f10x/stm32f10x_rcc.o
 .data._ZL5Bands
                0x20000028        0xc build_enddevice_f103_stm32f10x/LoRaMac.o
 .data._ZL8Channels
                0x20000034       0x80 build_enddevice_f103_stm32f10x/LoRaMac.o
 .data._ZL17AckTimeoutRetries
                0x200000b4        0x1 build_enddevice_f103_stm32f10x/LoRaMac.o
 .data._ZL18IsRxWindowsEnabled
                0x200000b5        0x1 build_enddevice_f103_stm32f10x/LoRaMac.o
 .data._ZL24AckTimeoutRetriesCounter
                0x200000b6        0x1 build_enddevice_f103_stm32f10x/LoRaMac.o
 .data._ZL10MicBlockB0
                0x200000b7       0x10 build_enddevice_f103_stm32f10x/LoRaMacCrypto.o
 .data._ZL6aBlock
                0x200000c7       0x10 build_enddevice_f103_stm32f10x/LoRaMacCrypto.o
 *fill*         0x200000d7        0x1 
 .data.lgn_cmd_table
                0x200000d8       0x48 build_enddevice_f103_stm32f10x/shell.o
                0x200000d8                lgn_cmd_table
 .data._ZL6DevEui
                0x20000120        0x8 build_enddevice_f103_stm32f10x/lorawan.o
 .data._ZL6AppKey
                0x20000128       0x10 build_enddevice_f103_stm32f10x/lorawan.o
 .data._ZL6AppEui
                0x20000138        0x8 build_enddevice_f103_stm32f10x/lorawan.o
 .data.app_task_table
                0x20000140       0x30 build_enddevice_f103_stm32f10x/task_list.o
                0x20000140                app_task_table
                0x20000170                _edata = .

.igot.plt       0x20000170        0x0 load address 0x08007b44
 .igot.plt      0x20000170        0x0 build_enddevice_f103_stm32f10x/message.o

.bss            0x20000170     0x1a58 load address 0x08007b44
                0x20000170                _bss = .
 *(.bss)
 *(.bss*)
 .bss.msg_common_pool
                0x20000170      0x300 build_enddevice_f103_stm32f10x/message.o
 .bss.free_list_common_msg_pool
                0x20000470        0x4 build_enddevice_f103_stm32f10x/message.o
 .bss.data_msg_dynamic_pool
                0x20000474      0x400 build_enddevice_f103_stm32f10x/message.o
 .bss.msg_dynamic_pool
                0x20000874      0x120 build_enddevice_f103_stm32f10x/message.o
 .bss.head_data_msg_dynamic_pool
                0x20000994        0x4 build_enddevice_f103_stm32f10x/message.o
 .bss.tail_data_msg_dynamic_pool
                0x20000998        0x4 build_enddevice_f103_stm32f10x/message.o
 .bss.free_list_pure_msg_pool
                0x2000099c        0x4 build_enddevice_f103_stm32f10x/message.o
 .bss.msg_pure_pool
                0x200009a0      0x380 build_enddevice_f103_stm32f10x/message.o
 .bss.free_list_dynamic_msg_pool
                0x20000d20        0x4 build_enddevice_f103_stm32f10x/message.o
 .bss.task_dbg_active_obj_queue
                0x20000d24      0x400 build_enddevice_f103_stm32f10x/task.o
 .bss.task_ready
                0x20001124        0x1 build_enddevice_f103_stm32f10x/task.o
 .bss.task_table_size
                0x20001125        0x1 build_enddevice_f103_stm32f10x/task.o
 .bss.current_task_id
                0x20001126        0x1 build_enddevice_f103_stm32f10x/task.o
 *fill*         0x20001127        0x1 
 .bss.current_task_info
                0x20001128        0x8 build_enddevice_f103_stm32f10x/task.o
 .bss.task_current
                0x20001130        0x1 build_enddevice_f103_stm32f10x/task.o
 *fill*         0x20001131        0x3 
 .bss.current_active_object
                0x20001134       0x1c build_enddevice_f103_stm32f10x/task.o
 .bss.task_table
                0x20001150        0x4 build_enddevice_f103_stm32f10x/task.o
 .bss.task_pri_queue
                0x20001154       0x60 build_enddevice_f103_stm32f10x/task.o
 .bss.timer_pool
                0x200011b4      0x100 build_enddevice_f103_stm32f10x/timer.o
 .bss.timer_list_head
                0x200012b4        0x4 build_enddevice_f103_stm32f10x/timer.o
 .bss.free_list_timer_pool
                0x200012b8        0x4 build_enddevice_f103_stm32f10x/timer.o
 .bss.dymc_print_type
                0x200012bc        0x1 build_enddevice_f103_stm32f10x/xprintf.o
 .bss.dymc_print_buf
                0x200012bd      0x100 build_enddevice_f103_stm32f10x/xprintf.o
 .bss.nest_entry_critical_counter
                0x200013bd        0x1 build_enddevice_f103_stm32f10x/stm32.o
 *fill*         0x200013be        0x2 
 .bss.div_counter.6892
                0x200013c0        0x4 build_enddevice_f103_stm32f10x/system.o
 .bss.millis_current
                0x200013c4        0x4 build_enddevice_f103_stm32f10x/system.o
 .bss.sys_ctrl_soft_time_out
                0x200013c8        0x4 build_enddevice_f103_stm32f10x/sys_cfg.o
 .bss.sys_ctrl_soft_counter
                0x200013cc        0x4 build_enddevice_f103_stm32f10x/sys_cfg.o
 .bss.delay_coeficient
                0x200013d0        0x4 build_enddevice_f103_stm32f10x/sys_cfg.o
 .bss._ZL30MacCommandsBufferToRepeatIndex
                0x200013d4        0x1 build_enddevice_f103_stm32f10x/LoRaMac.o
 .bss._ZL9AdrCtrlOn
                0x200013d5        0x1 build_enddevice_f103_stm32f10x/LoRaMac.o
 .bss._ZL20IsUpLinkCounterFixed
                0x200013d6        0x1 build_enddevice_f103_stm32f10x/LoRaMac.o
 *fill*         0x200013d7        0x1 
 .bss._ZL14LoRaMacDevAddr
                0x200013d8        0x4 build_enddevice_f103_stm32f10x/LoRaMac.o
 .bss._ZL13LoRaMacAppEui
                0x200013dc        0x4 build_enddevice_f103_stm32f10x/LoRaMac.o
 .bss._ZL17LoRaMacPrimitives
                0x200013e0        0x4 build_enddevice_f103_stm32f10x/LoRaMac.o
 .bss._ZL15RxWindowsParams
                0x200013e4       0x18 build_enddevice_f103_stm32f10x/LoRaMac.o
 .bss._ZL25MacCommandsBufferToRepeat
                0x200013fc        0xf build_enddevice_f103_stm32f10x/LoRaMac.o
 .bss._ZL9MaxDCycle
                0x2000140b        0x1 build_enddevice_f103_stm32f10x/LoRaMac.o
 .bss._ZL14McpsIndication
                0x2000140c       0x18 build_enddevice_f103_stm32f10x/LoRaMac.o
 .bss._ZL11DutyCycleOn
                0x20001424        0x1 build_enddevice_f103_stm32f10x/LoRaMac.o
 *fill*         0x20001425        0x3 
 .bss._ZL17AggregatedTimeOff
                0x20001428        0x4 build_enddevice_f103_stm32f10x/LoRaMac.o
 .bss._ZL13LoRaMacDevEui
                0x2000142c        0x4 build_enddevice_f103_stm32f10x/LoRaMac.o
 .bss._ZL16LoRaMacRxPayload
                0x20001430       0xff build_enddevice_f103_stm32f10x/LoRaMac.o
 .bss._ZL19LoRaMacTxPayloadLen
                0x2000152f        0x1 build_enddevice_f103_stm32f10x/LoRaMac.o
 .bss._ZL17MacCommandsBuffer
                0x20001530        0xf build_enddevice_f103_stm32f10x/LoRaMac.o
 .bss._ZL20ChannelsNbRepCounter
                0x2000153f        0x1 build_enddevice_f103_stm32f10x/LoRaMac.o
 .bss._ZL20MaxJoinRequestTrials
                0x20001540        0x1 build_enddevice_f103_stm32f10x/LoRaMac.o
 *fill*         0x20001541        0x3 
 .bss._ZL13AdrAckCounter
                0x20001544        0x4 build_enddevice_f103_stm32f10x/LoRaMac.o
 .bss._ZL13PublicNetwork
                0x20001548        0x1 build_enddevice_f103_stm32f10x/LoRaMac.o
 *fill*         0x20001549        0x1 
 .bss._ZL16AggregatedDCycle
                0x2000154a        0x2 build_enddevice_f103_stm32f10x/LoRaMac.o
 .bss._ZL19LoRaMacBufferPktLen
                0x2000154c        0x2 build_enddevice_f103_stm32f10x/LoRaMac.o
 *fill*         0x2000154e        0x2 
 .bss.LoRaMacState
                0x20001550        0x4 build_enddevice_f103_stm32f10x/LoRaMac.o
                0x20001550                LoRaMacState
 .bss._ZL15LoRaMacDevNonce
                0x20001554        0x2 build_enddevice_f103_stm32f10x/LoRaMac.o
 *fill*         0x20001556        0x2 
 .bss.TxTimeOnAir
                0x20001558        0x4 build_enddevice_f103_stm32f10x/LoRaMac.o
                0x20001558                TxTimeOnAir
 .bss.LoRaMacParams
                0x2000155c       0x38 build_enddevice_f103_stm32f10x/LoRaMac.o
                0x2000155c                LoRaMacParams
 .bss._ZL13LoRaMacBuffer
                0x20001594       0xff build_enddevice_f103_stm32f10x/LoRaMac.o
 *fill*         0x20001693        0x1 
 .bss.LoRaMacParamsDefaults
                0x20001694       0x38 build_enddevice_f103_stm32f10x/LoRaMac.o
                0x20001694                LoRaMacParamsDefaults
 .bss._ZL16NodeAckRequested
                0x200016cc        0x1 build_enddevice_f103_stm32f10x/LoRaMac.o
 .bss._ZL22MacCommandsBufferIndex
                0x200016cd        0x1 build_enddevice_f103_stm32f10x/LoRaMac.o
 *fill*         0x200016ce        0x2 
 .bss._ZL25LoRaMacInitializationTime
                0x200016d0        0x4 build_enddevice_f103_stm32f10x/LoRaMac.o
 .bss._ZL14RxWindow2Delay
                0x200016d4        0x4 build_enddevice_f103_stm32f10x/LoRaMac.o
 .bss._ZL14LoRaMacAppSKey
                0x200016d8       0x10 build_enddevice_f103_stm32f10x/LoRaMac.o
 .bss._ZL11RadioEvents
                0x200016e8       0x1c build_enddevice_f103_stm32f10x/LoRaMac.o
 .bss._ZL15RepeaterSupport
                0x20001704        0x1 build_enddevice_f103_stm32f10x/LoRaMac.o
 *fill*         0x20001705        0x3 
 .bss._ZL14RxWindow1Delay
                0x20001708        0x4 build_enddevice_f103_stm32f10x/LoRaMac.o
 .bss._ZL22IsLoRaMacNetworkJoined
                0x2000170c        0x1 build_enddevice_f103_stm32f10x/LoRaMac.o
 .bss._ZL15AckTimeoutRetry
                0x2000170d        0x1 build_enddevice_f103_stm32f10x/LoRaMac.o
 *fill*         0x2000170e        0x2 
 .bss._ZL13UpLinkCounter
                0x20001710        0x4 build_enddevice_f103_stm32f10x/LoRaMac.o
 .bss._ZL14LoRaMacNwkSKey
                0x20001714       0x10 build_enddevice_f103_stm32f10x/LoRaMac.o
 .bss._ZL11McpsConfirm
                0x20001724       0x14 build_enddevice_f103_stm32f10x/LoRaMac.o
 .bss._ZL7Channel
                0x20001738        0x1 build_enddevice_f103_stm32f10x/LoRaMac.o
 *fill*         0x20001739        0x3 
 .bss._ZL12LoRaMacNetID
                0x2000173c        0x4 build_enddevice_f103_stm32f10x/LoRaMac.o
 .bss._ZL15DownLinkCounter
                0x20001740        0x4 build_enddevice_f103_stm32f10x/LoRaMac.o
 .bss._ZL15SrvAckRequested
                0x20001744        0x1 build_enddevice_f103_stm32f10x/LoRaMac.o
 .bss.LoRaMacFlags
                0x20001745        0x1 build_enddevice_f103_stm32f10x/LoRaMac.o
                0x20001745                LoRaMacFlags
 .bss._ZL17JoinRequestTrials
                0x20001746        0x1 build_enddevice_f103_stm32f10x/LoRaMac.o
 *fill*         0x20001747        0x1 
 .bss._ZL13LoRaMacAppKey
                0x20001748        0x4 build_enddevice_f103_stm32f10x/LoRaMac.o
 .bss._ZL18LoRaMacDeviceClass
                0x2000174c        0x1 build_enddevice_f103_stm32f10x/LoRaMac.o
 *fill*         0x2000174d        0x3 
 .bss._ZL11MlmeConfirm
                0x20001750        0xc build_enddevice_f103_stm32f10x/LoRaMac.o
 .bss._ZL6RxSlot
                0x2000175c        0x1 build_enddevice_f103_stm32f10x/LoRaMac.o
 *fill*         0x2000175d        0x3 
 .bss._ZL16LoRaMacCallbacks
                0x20001760        0x4 build_enddevice_f103_stm32f10x/LoRaMac.o
 .bss._ZL24AggregatedLastTxDoneTime
                0x20001764        0x4 build_enddevice_f103_stm32f10x/LoRaMac.o
 .bss._ZL17MulticastChannels
                0x20001768        0x4 build_enddevice_f103_stm32f10x/LoRaMac.o
 .bss._ZL19MacCommandsInNextTx
                0x2000176c        0x1 build_enddevice_f103_stm32f10x/LoRaMac.o
 .bss._ZL10AesContext
                0x2000176d       0xf1 build_enddevice_f103_stm32f10x/LoRaMacCrypto.o
 .bss._ZL6sBlock
                0x2000185e       0x10 build_enddevice_f103_stm32f10x/LoRaMacCrypto.o
 *fill*         0x2000186e        0x2 
 .bss._ZL10AesCmacCtx
                0x20001870      0x118 build_enddevice_f103_stm32f10x/LoRaMacCrypto.o
 .bss._ZL3Mic   0x20001988       0x10 build_enddevice_f103_stm32f10x/LoRaMacCrypto.o
 .bss.SX1276    0x20001998       0x64 build_enddevice_f103_stm32f10x/sx1276.o
                0x20001998                SX1276
 .bss._ZL10RxTxBuffer
                0x200019fc      0x100 build_enddevice_f103_stm32f10x/sx1276.o
 .bss._ZL11RadioEvents
                0x20001afc        0x4 build_enddevice_f103_stm32f10x/sx1276.o
 .bss._ZL14TxTimeoutTimer
                0x20001b00        0x4 build_enddevice_f103_stm32f10x/sx1276.o
 .bss.button    0x20001b04       0x18 build_enddevice_f103_stm32f10x/app_bsp.o
                0x20001b04                button
 .bss._ZL10notify_msg
                0x20001b1c        0x5 build_enddevice_f103_stm32f10x/lorawan.o
 *fill*         0x20001b21        0x3 
 .bss._ZL6mibReq
                0x20001b24        0xc build_enddevice_f103_stm32f10x/lorawan.o
 .bss._ZL17LoRaMacPrimitives
                0x20001b30        0xc build_enddevice_f103_stm32f10x/lorawan.o
 .bss._ZL16LoRaMacCallbacks
                0x20001b3c        0x4 build_enddevice_f103_stm32f10x/lorawan.o
 .bss.shell     0x20001b40       0x11 build_enddevice_f103_stm32f10x/task_shell.o
                0x20001b40                shell
 *fill*         0x20001b51        0x3 
 .bss.led_life  0x20001b54       0x1c build_enddevice_f103_stm32f10x/task_life.o
                0x20001b54                led_life
 .bss.SPI       0x20001b70        0x2 build_enddevice_f103_stm32f10x/SPI.o
                0x20001b70                SPI
 *(COMMON)
 *fill*         0x20001b72        0x2 
 COMMON         0x20001b74       0x24 build_enddevice_f103_stm32f10x/task.o
                0x20001b74                log_task_dbg_object_queue
 COMMON         0x20001b98        0x8 build_enddevice_f103_stm32f10x/timer.o
                0x20001b98                ak_timer_payload_irq
 COMMON         0x20001ba0        0x4 build_enddevice_f103_stm32f10x/xprintf.o
                0x20001ba0                xfunc_out
 COMMON         0x20001ba4       0x24 build_enddevice_f103_stm32f10x/system.o
                0x20001ba4                system_info
                0x20001bc8                _ebss = .

.heap           0x20001bc8        0x0
                0x20001bc8                __heap_start__ = .
                0x20001bc8                . = (. + HEAP_SIZE)
                0x20001bc8                . = ALIGN (0x4)
                0x20001bc8                __heap_end__ = .

.end_ram        0x20001bc8        0x0
                0x20001bc8                _end_ram = .
                0x20005000                _estack = (ORIGIN (SRAM) + LENGTH (SRAM))

/DISCARD/
 libc.a(*)
 libm.a(*)
 libg.a(*)
 libgcc.a(*)
LOAD /home/binhnt/opt/gcc-arm-none-eabi-5_4-2016q3/arm-none-eabi/lib/armv7-m/libc.a
LOAD /home/binhnt/opt/gcc-arm-none-eabi-5_4-2016q3/arm-none-eabi/lib/armv7-m/libm.a
LOAD /home/binhnt/opt/gcc-arm-none-eabi-5_4-2016q3/lib/gcc/arm-none-eabi/5.4.1/armv7-m/libgcc.a
LOAD /home/binhnt/opt/gcc-arm-none-eabi-5_4-2016q3/arm-none-eabi/lib/armv7-m/libg.a
LOAD build_enddevice_f103_stm32f10x/message.o
LOAD build_enddevice_f103_stm32f10x/fsm.o
LOAD build_enddevice_f103_stm32f10x/tsm.o
LOAD build_enddevice_f103_stm32f10x/task.o
LOAD build_enddevice_f103_stm32f10x/timer.o
LOAD build_enddevice_f103_stm32f10x/aes.o
LOAD build_enddevice_f103_stm32f10x/cmac.o
LOAD build_enddevice_f103_stm32f10x/utils.o
LOAD build_enddevice_f103_stm32f10x/xprintf.o
LOAD build_enddevice_f103_stm32f10x/cmd_line.o
LOAD build_enddevice_f103_stm32f10x/log_queue.o
LOAD build_enddevice_f103_stm32f10x/fifo.o
LOAD build_enddevice_f103_stm32f10x/led.o
LOAD build_enddevice_f103_stm32f10x/button.o
LOAD build_enddevice_f103_stm32f10x/sys_dbg.o
LOAD build_enddevice_f103_stm32f10x/system_stm32f10x.o
LOAD build_enddevice_f103_stm32f10x/stm32f10x_gpio.o
LOAD build_enddevice_f103_stm32f10x/stm32f10x_rcc.o
LOAD build_enddevice_f103_stm32f10x/stm32f10x_usart.o
LOAD build_enddevice_f103_stm32f10x/stm32f10x_spi.o
LOAD build_enddevice_f103_stm32f10x/misc.o
LOAD build_enddevice_f103_stm32f10x/stm32f10x_exti.o
LOAD build_enddevice_f103_stm32f10x/stm32f10x_tim.o
LOAD build_enddevice_f103_stm32f10x/stm32f10x_adc.o
LOAD build_enddevice_f103_stm32f10x/stm32f10x_rtc.o
LOAD build_enddevice_f103_stm32f10x/stm32f10x_pwr.o
LOAD build_enddevice_f103_stm32f10x/stm32f10x_flash.o
LOAD build_enddevice_f103_stm32f10x/stm32f10x_iwdg.o
LOAD build_enddevice_f103_stm32f10x/stm32f10x_dac.o
LOAD build_enddevice_f103_stm32f10x/stm32.o
LOAD build_enddevice_f103_stm32f10x/system.o
LOAD build_enddevice_f103_stm32f10x/sys_cfg.o
LOAD build_enddevice_f103_stm32f10x/io_cfg.o
LOAD build_enddevice_f103_stm32f10x/LoRaMac.o
LOAD build_enddevice_f103_stm32f10x/LoRaMacCrypto.o
LOAD build_enddevice_f103_stm32f10x/sx1276.o
LOAD build_enddevice_f103_stm32f10x/sx1276_cfg.o
LOAD build_enddevice_f103_stm32f10x/app.o
LOAD build_enddevice_f103_stm32f10x/shell.o
LOAD build_enddevice_f103_stm32f10x/app_bsp.o
LOAD build_enddevice_f103_stm32f10x/lorawan.o
LOAD build_enddevice_f103_stm32f10x/task_shell.o
LOAD build_enddevice_f103_stm32f10x/task_life.o
LOAD build_enddevice_f103_stm32f10x/task_list.o
LOAD build_enddevice_f103_stm32f10x/task_loramac.o
LOAD build_enddevice_f103_stm32f10x/task_ui.o
LOAD build_enddevice_f103_stm32f10x/SPI.o
LOAD build_enddevice_f103_stm32f10x/wiring_digital.o
LOAD build_enddevice_f103_stm32f10x/wiring_shift.o
LOAD build_enddevice_f103_stm32f10x/Print.o
LOAD build_enddevice_f103_stm32f10x/mini_cpp.o
LOAD /home/binhnt/opt/gcc-arm-none-eabi-5_4-2016q3/arm-none-eabi/lib/armv7-m/libc.a
LOAD /home/binhnt/opt/gcc-arm-none-eabi-5_4-2016q3/arm-none-eabi/lib/armv7-m/libm.a
LOAD /home/binhnt/opt/gcc-arm-none-eabi-5_4-2016q3/lib/gcc/arm-none-eabi/5.4.1/armv7-m/libgcc.a
LOAD /home/binhnt/opt/gcc-arm-none-eabi-5_4-2016q3/arm-none-eabi/lib/armv7-m/libg.a
OUTPUT(build_enddevice_f103_stm32f10x/enddevice_f103.axf elf32-littlearm)

.debug_info     0x00000000    0x16d29
 .debug_info    0x00000000      0xe2d build_enddevice_f103_stm32f10x/message.o
 .debug_info    0x00000e2d      0x7ec build_enddevice_f103_stm32f10x/task.o
 .debug_info    0x00001619      0x673 build_enddevice_f103_stm32f10x/timer.o
 .debug_info    0x00001c8c      0x622 build_enddevice_f103_stm32f10x/aes.o
 .debug_info    0x000022ae      0x527 build_enddevice_f103_stm32f10x/cmac.o
 .debug_info    0x000027d5      0x400 build_enddevice_f103_stm32f10x/utils.o
 .debug_info    0x00002bd5      0x54a build_enddevice_f103_stm32f10x/xprintf.o
 .debug_info    0x0000311f      0x1d9 build_enddevice_f103_stm32f10x/cmd_line.o
 .debug_info    0x000032f8      0x263 build_enddevice_f103_stm32f10x/log_queue.o
 .debug_info    0x0000355b      0x2fe build_enddevice_f103_stm32f10x/led.o
 .debug_info    0x00003859      0x27a build_enddevice_f103_stm32f10x/button.o
 .debug_info    0x00003ad3      0x3b5 build_enddevice_f103_stm32f10x/sys_dbg.o
 .debug_info    0x00003e88      0x4c8 build_enddevice_f103_stm32f10x/system_stm32f10x.o
 .debug_info    0x00004350      0x7f3 build_enddevice_f103_stm32f10x/stm32f10x_gpio.o
 .debug_info    0x00004b43      0x8db build_enddevice_f103_stm32f10x/stm32f10x_rcc.o
 .debug_info    0x0000541e      0xacd build_enddevice_f103_stm32f10x/stm32f10x_usart.o
 .debug_info    0x00005eeb      0x9a6 build_enddevice_f103_stm32f10x/stm32f10x_spi.o
 .debug_info    0x00006891      0x55e build_enddevice_f103_stm32f10x/misc.o
 .debug_info    0x00006def      0x345 build_enddevice_f103_stm32f10x/stm32f10x_exti.o
 .debug_info    0x00007134     0x2010 build_enddevice_f103_stm32f10x/stm32f10x_tim.o
 .debug_info    0x00009144      0x211 build_enddevice_f103_stm32f10x/stm32f10x_iwdg.o
 .debug_info    0x00009355      0x193 build_enddevice_f103_stm32f10x/stm32.o
 .debug_info    0x000094e8      0x9dd build_enddevice_f103_stm32f10x/system.o
 .debug_info    0x00009ec5     0x1673 build_enddevice_f103_stm32f10x/sys_cfg.o
 .debug_info    0x0000b538      0xecd build_enddevice_f103_stm32f10x/io_cfg.o
 .debug_info    0x0000c405     0x3c70 build_enddevice_f103_stm32f10x/LoRaMac.o
 .debug_info    0x00010075      0x7ef build_enddevice_f103_stm32f10x/LoRaMacCrypto.o
 .debug_info    0x00010864     0x2112 build_enddevice_f103_stm32f10x/sx1276.o
 .debug_info    0x00012976      0xab0 build_enddevice_f103_stm32f10x/sx1276_cfg.o
 .debug_info    0x00013426      0x683 build_enddevice_f103_stm32f10x/app.o
 .debug_info    0x00013aa9      0x3f8 build_enddevice_f103_stm32f10x/shell.o
 .debug_info    0x00013ea1      0x348 build_enddevice_f103_stm32f10x/app_bsp.o
 .debug_info    0x000141e9     0x1250 build_enddevice_f103_stm32f10x/lorawan.o
 .debug_info    0x00015439      0x440 build_enddevice_f103_stm32f10x/task_shell.o
 .debug_info    0x00015879      0x29e build_enddevice_f103_stm32f10x/task_life.o
 .debug_info    0x00015b17      0x209 build_enddevice_f103_stm32f10x/task_list.o
 .debug_info    0x00015d20      0x333 build_enddevice_f103_stm32f10x/task_loramac.o
 .debug_info    0x00016053      0x2c0 build_enddevice_f103_stm32f10x/task_ui.o
 .debug_info    0x00016313      0xa16 build_enddevice_f103_stm32f10x/SPI.o

.debug_abbrev   0x00000000     0x4917
 .debug_abbrev  0x00000000      0x378 build_enddevice_f103_stm32f10x/message.o
 .debug_abbrev  0x00000378      0x23f build_enddevice_f103_stm32f10x/task.o
 .debug_abbrev  0x000005b7      0x27f build_enddevice_f103_stm32f10x/timer.o
 .debug_abbrev  0x00000836      0x1fc build_enddevice_f103_stm32f10x/aes.o
 .debug_abbrev  0x00000a32      0x17a build_enddevice_f103_stm32f10x/cmac.o
 .debug_abbrev  0x00000bac      0x11b build_enddevice_f103_stm32f10x/utils.o
 .debug_abbrev  0x00000cc7      0x212 build_enddevice_f103_stm32f10x/xprintf.o
 .debug_abbrev  0x00000ed9      0x112 build_enddevice_f103_stm32f10x/cmd_line.o
 .debug_abbrev  0x00000feb       0xed build_enddevice_f103_stm32f10x/log_queue.o
 .debug_abbrev  0x000010d8      0x117 build_enddevice_f103_stm32f10x/led.o
 .debug_abbrev  0x000011ef      0x14a build_enddevice_f103_stm32f10x/button.o
 .debug_abbrev  0x00001339      0x155 build_enddevice_f103_stm32f10x/sys_dbg.o
 .debug_abbrev  0x0000148e      0x170 build_enddevice_f103_stm32f10x/system_stm32f10x.o
 .debug_abbrev  0x000015fe      0x200 build_enddevice_f103_stm32f10x/stm32f10x_gpio.o
 .debug_abbrev  0x000017fe      0x1e4 build_enddevice_f103_stm32f10x/stm32f10x_rcc.o
 .debug_abbrev  0x000019e2      0x1e6 build_enddevice_f103_stm32f10x/stm32f10x_usart.o
 .debug_abbrev  0x00001bc8      0x1e8 build_enddevice_f103_stm32f10x/stm32f10x_spi.o
 .debug_abbrev  0x00001db0      0x158 build_enddevice_f103_stm32f10x/misc.o
 .debug_abbrev  0x00001f08      0x1a1 build_enddevice_f103_stm32f10x/stm32f10x_exti.o
 .debug_abbrev  0x000020a9      0x2d2 build_enddevice_f103_stm32f10x/stm32f10x_tim.o
 .debug_abbrev  0x0000237b      0x114 build_enddevice_f103_stm32f10x/stm32f10x_iwdg.o
 .debug_abbrev  0x0000248f       0xc4 build_enddevice_f103_stm32f10x/stm32.o
 .debug_abbrev  0x00002553      0x289 build_enddevice_f103_stm32f10x/system.o
 .debug_abbrev  0x000027dc      0x39a build_enddevice_f103_stm32f10x/sys_cfg.o
 .debug_abbrev  0x00002b76      0x206 build_enddevice_f103_stm32f10x/io_cfg.o
 .debug_abbrev  0x00002d7c      0x533 build_enddevice_f103_stm32f10x/LoRaMac.o
 .debug_abbrev  0x000032af      0x17c build_enddevice_f103_stm32f10x/LoRaMacCrypto.o
 .debug_abbrev  0x0000342b      0x37f build_enddevice_f103_stm32f10x/sx1276.o
 .debug_abbrev  0x000037aa      0x27d build_enddevice_f103_stm32f10x/sx1276_cfg.o
 .debug_abbrev  0x00003a27      0x1a6 build_enddevice_f103_stm32f10x/app.o
 .debug_abbrev  0x00003bcd      0x177 build_enddevice_f103_stm32f10x/shell.o
 .debug_abbrev  0x00003d44      0x14b build_enddevice_f103_stm32f10x/app_bsp.o
 .debug_abbrev  0x00003e8f      0x2ca build_enddevice_f103_stm32f10x/lorawan.o
 .debug_abbrev  0x00004159      0x18b build_enddevice_f103_stm32f10x/task_shell.o
 .debug_abbrev  0x000042e4       0xf1 build_enddevice_f103_stm32f10x/task_life.o
 .debug_abbrev  0x000043d5       0xa9 build_enddevice_f103_stm32f10x/task_list.o
 .debug_abbrev  0x0000447e       0xdc build_enddevice_f103_stm32f10x/task_loramac.o
 .debug_abbrev  0x0000455a      0x114 build_enddevice_f103_stm32f10x/task_ui.o
 .debug_abbrev  0x0000466e      0x2a9 build_enddevice_f103_stm32f10x/SPI.o

.debug_loc      0x00000000     0xb876
 .debug_loc     0x00000000      0xab2 build_enddevice_f103_stm32f10x/message.o
 .debug_loc     0x00000ab2      0x1f5 build_enddevice_f103_stm32f10x/task.o
 .debug_loc     0x00000ca7      0x311 build_enddevice_f103_stm32f10x/timer.o
 .debug_loc     0x00000fb8      0x55a build_enddevice_f103_stm32f10x/aes.o
 .debug_loc     0x00001512      0x222 build_enddevice_f103_stm32f10x/cmac.o
 .debug_loc     0x00001734      0x631 build_enddevice_f103_stm32f10x/utils.o
 .debug_loc     0x00001d65      0x768 build_enddevice_f103_stm32f10x/xprintf.o
 .debug_loc     0x000024cd       0xe7 build_enddevice_f103_stm32f10x/cmd_line.o
 .debug_loc     0x000025b4      0x1c8 build_enddevice_f103_stm32f10x/log_queue.o
 .debug_loc     0x0000277c      0x216 build_enddevice_f103_stm32f10x/led.o
 .debug_loc     0x00002992      0x143 build_enddevice_f103_stm32f10x/button.o
 .debug_loc     0x00002ad5       0x95 build_enddevice_f103_stm32f10x/sys_dbg.o
 .debug_loc     0x00002b6a       0x99 build_enddevice_f103_stm32f10x/system_stm32f10x.o
 .debug_loc     0x00002c03      0x4ed build_enddevice_f103_stm32f10x/stm32f10x_gpio.o
 .debug_loc     0x000030f0      0x672 build_enddevice_f103_stm32f10x/stm32f10x_rcc.o
 .debug_loc     0x00003762      0x751 build_enddevice_f103_stm32f10x/stm32f10x_usart.o
 .debug_loc     0x00003eb3      0x5fa build_enddevice_f103_stm32f10x/stm32f10x_spi.o
 .debug_loc     0x000044ad      0x161 build_enddevice_f103_stm32f10x/misc.o
 .debug_loc     0x0000460e      0x188 build_enddevice_f103_stm32f10x/stm32f10x_exti.o
 .debug_loc     0x00004796     0x1c08 build_enddevice_f103_stm32f10x/stm32f10x_tim.o
 .debug_loc     0x0000639e       0x62 build_enddevice_f103_stm32f10x/stm32f10x_iwdg.o
 .debug_loc     0x00006400       0x36 build_enddevice_f103_stm32f10x/system.o
 .debug_loc     0x00006436      0x17a build_enddevice_f103_stm32f10x/sys_cfg.o
 .debug_loc     0x000065b0       0x54 build_enddevice_f103_stm32f10x/io_cfg.o
 .debug_loc     0x00006604     0x2f2b build_enddevice_f103_stm32f10x/LoRaMac.o
 .debug_loc     0x0000952f      0x66d build_enddevice_f103_stm32f10x/LoRaMacCrypto.o
 .debug_loc     0x00009b9c     0x13d8 build_enddevice_f103_stm32f10x/sx1276.o
 .debug_loc     0x0000af74      0x162 build_enddevice_f103_stm32f10x/sx1276_cfg.o
 .debug_loc     0x0000b0d6       0xf3 build_enddevice_f103_stm32f10x/shell.o
 .debug_loc     0x0000b1c9      0x114 build_enddevice_f103_stm32f10x/app_bsp.o
 .debug_loc     0x0000b2dd      0x27c build_enddevice_f103_stm32f10x/lorawan.o
 .debug_loc     0x0000b559       0x87 build_enddevice_f103_stm32f10x/task_shell.o
 .debug_loc     0x0000b5e0       0x2c build_enddevice_f103_stm32f10x/task_life.o
 .debug_loc     0x0000b60c       0xa9 build_enddevice_f103_stm32f10x/task_loramac.o
 .debug_loc     0x0000b6b5       0x3a build_enddevice_f103_stm32f10x/task_ui.o
 .debug_loc     0x0000b6ef      0x187 build_enddevice_f103_stm32f10x/SPI.o

.debug_aranges  0x00000000     0x1218
 .debug_aranges
                0x00000000       0x98 build_enddevice_f103_stm32f10x/message.o
 .debug_aranges
                0x00000098       0x80 build_enddevice_f103_stm32f10x/task.o
 .debug_aranges
                0x00000118       0x50 build_enddevice_f103_stm32f10x/timer.o
 .debug_aranges
                0x00000168       0x40 build_enddevice_f103_stm32f10x/aes.o
 .debug_aranges
                0x000001a8       0x38 build_enddevice_f103_stm32f10x/cmac.o
 .debug_aranges
                0x000001e0       0x58 build_enddevice_f103_stm32f10x/utils.o
 .debug_aranges
                0x00000238       0x40 build_enddevice_f103_stm32f10x/xprintf.o
 .debug_aranges
                0x00000278       0x20 build_enddevice_f103_stm32f10x/cmd_line.o
 .debug_aranges
                0x00000298       0x38 build_enddevice_f103_stm32f10x/log_queue.o
 .debug_aranges
                0x000002d0       0x50 build_enddevice_f103_stm32f10x/led.o
 .debug_aranges
                0x00000320       0x38 build_enddevice_f103_stm32f10x/button.o
 .debug_aranges
                0x00000358       0x20 build_enddevice_f103_stm32f10x/sys_dbg.o
 .debug_aranges
                0x00000378       0x28 build_enddevice_f103_stm32f10x/system_stm32f10x.o
 .debug_aranges
                0x000003a0       0xa8 build_enddevice_f103_stm32f10x/stm32f10x_gpio.o
 .debug_aranges
                0x00000448      0x118 build_enddevice_f103_stm32f10x/stm32f10x_rcc.o
 .debug_aranges
                0x00000560      0x100 build_enddevice_f103_stm32f10x/stm32f10x_usart.o
 .debug_aranges
                0x00000660       0xd0 build_enddevice_f103_stm32f10x/stm32f10x_spi.o
 .debug_aranges
                0x00000730       0x40 build_enddevice_f103_stm32f10x/misc.o
 .debug_aranges
                0x00000770       0x50 build_enddevice_f103_stm32f10x/stm32f10x_exti.o
 .debug_aranges
                0x000007c0      0x2d0 build_enddevice_f103_stm32f10x/stm32f10x_tim.o
 .debug_aranges
                0x00000a90       0x48 build_enddevice_f103_stm32f10x/stm32f10x_iwdg.o
 .debug_aranges
                0x00000ad8       0x38 build_enddevice_f103_stm32f10x/stm32.o
 .debug_aranges
                0x00000b10       0x88 build_enddevice_f103_stm32f10x/system.o
 .debug_aranges
                0x00000b98       0xa0 build_enddevice_f103_stm32f10x/sys_cfg.o
 .debug_aranges
                0x00000c38       0xb8 build_enddevice_f103_stm32f10x/io_cfg.o
 .debug_aranges
                0x00000cf0      0x150 build_enddevice_f103_stm32f10x/LoRaMac.o
 .debug_aranges
                0x00000e40       0x48 build_enddevice_f103_stm32f10x/LoRaMacCrypto.o
 .debug_aranges
                0x00000e88      0x128 build_enddevice_f103_stm32f10x/sx1276.o
 .debug_aranges
                0x00000fb0       0x58 build_enddevice_f103_stm32f10x/sx1276_cfg.o
 .debug_aranges
                0x00001008       0x28 build_enddevice_f103_stm32f10x/app.o
 .debug_aranges
                0x00001030       0x40 build_enddevice_f103_stm32f10x/shell.o
 .debug_aranges
                0x00001070       0x20 build_enddevice_f103_stm32f10x/app_bsp.o
 .debug_aranges
                0x00001090       0x48 build_enddevice_f103_stm32f10x/lorawan.o
 .debug_aranges
                0x000010d8       0x28 build_enddevice_f103_stm32f10x/task_shell.o
 .debug_aranges
                0x00001100       0x20 build_enddevice_f103_stm32f10x/task_life.o
 .debug_aranges
                0x00001120       0x18 build_enddevice_f103_stm32f10x/task_list.o
 .debug_aranges
                0x00001138       0x50 build_enddevice_f103_stm32f10x/task_loramac.o
 .debug_aranges
                0x00001188       0x20 build_enddevice_f103_stm32f10x/task_ui.o
 .debug_aranges
                0x000011a8       0x70 build_enddevice_f103_stm32f10x/SPI.o

.debug_ranges   0x00000000     0x1450
 .debug_ranges  0x00000000      0x118 build_enddevice_f103_stm32f10x/message.o
 .debug_ranges  0x00000118       0x88 build_enddevice_f103_stm32f10x/task.o
 .debug_ranges  0x000001a0       0x70 build_enddevice_f103_stm32f10x/timer.o
 .debug_ranges  0x00000210      0x118 build_enddevice_f103_stm32f10x/aes.o
 .debug_ranges  0x00000328       0x40 build_enddevice_f103_stm32f10x/cmac.o
 .debug_ranges  0x00000368       0x60 build_enddevice_f103_stm32f10x/utils.o
 .debug_ranges  0x000003c8       0x30 build_enddevice_f103_stm32f10x/xprintf.o
 .debug_ranges  0x000003f8       0x10 build_enddevice_f103_stm32f10x/cmd_line.o
 .debug_ranges  0x00000408       0x28 build_enddevice_f103_stm32f10x/log_queue.o
 .debug_ranges  0x00000430       0x40 build_enddevice_f103_stm32f10x/led.o
 .debug_ranges  0x00000470       0x28 build_enddevice_f103_stm32f10x/button.o
 .debug_ranges  0x00000498       0x10 build_enddevice_f103_stm32f10x/sys_dbg.o
 .debug_ranges  0x000004a8       0x30 build_enddevice_f103_stm32f10x/system_stm32f10x.o
 .debug_ranges  0x000004d8       0x98 build_enddevice_f103_stm32f10x/stm32f10x_gpio.o
 .debug_ranges  0x00000570      0x108 build_enddevice_f103_stm32f10x/stm32f10x_rcc.o
 .debug_ranges  0x00000678       0xf0 build_enddevice_f103_stm32f10x/stm32f10x_usart.o
 .debug_ranges  0x00000768       0xc0 build_enddevice_f103_stm32f10x/stm32f10x_spi.o
 .debug_ranges  0x00000828       0x30 build_enddevice_f103_stm32f10x/misc.o
 .debug_ranges  0x00000858       0x40 build_enddevice_f103_stm32f10x/stm32f10x_exti.o
 .debug_ranges  0x00000898      0x2f8 build_enddevice_f103_stm32f10x/stm32f10x_tim.o
 .debug_ranges  0x00000b90       0x38 build_enddevice_f103_stm32f10x/stm32f10x_iwdg.o
 .debug_ranges  0x00000bc8       0x28 build_enddevice_f103_stm32f10x/stm32.o
 .debug_ranges  0x00000bf0       0x78 build_enddevice_f103_stm32f10x/system.o
 .debug_ranges  0x00000c68       0xa8 build_enddevice_f103_stm32f10x/sys_cfg.o
 .debug_ranges  0x00000d10       0xa8 build_enddevice_f103_stm32f10x/io_cfg.o
 .debug_ranges  0x00000db8      0x2c0 build_enddevice_f103_stm32f10x/LoRaMac.o
 .debug_ranges  0x00001078       0x38 build_enddevice_f103_stm32f10x/LoRaMacCrypto.o
 .debug_ranges  0x000010b0      0x178 build_enddevice_f103_stm32f10x/sx1276.o
 .debug_ranges  0x00001228       0x60 build_enddevice_f103_stm32f10x/sx1276_cfg.o
 .debug_ranges  0x00001288       0x18 build_enddevice_f103_stm32f10x/app.o
 .debug_ranges  0x000012a0       0x30 build_enddevice_f103_stm32f10x/shell.o
 .debug_ranges  0x000012d0       0x28 build_enddevice_f103_stm32f10x/app_bsp.o
 .debug_ranges  0x000012f8       0x80 build_enddevice_f103_stm32f10x/lorawan.o
 .debug_ranges  0x00001378       0x18 build_enddevice_f103_stm32f10x/task_shell.o
 .debug_ranges  0x00001390       0x10 build_enddevice_f103_stm32f10x/task_life.o
 .debug_ranges  0x000013a0       0x40 build_enddevice_f103_stm32f10x/task_loramac.o
 .debug_ranges  0x000013e0       0x10 build_enddevice_f103_stm32f10x/task_ui.o
 .debug_ranges  0x000013f0       0x60 build_enddevice_f103_stm32f10x/SPI.o

.debug_line     0x00000000     0x811e
 .debug_line    0x00000000      0x38c build_enddevice_f103_stm32f10x/message.o
 .debug_line    0x0000038c      0x32a build_enddevice_f103_stm32f10x/task.o
 .debug_line    0x000006b6      0x260 build_enddevice_f103_stm32f10x/timer.o
 .debug_line    0x00000916      0x2e3 build_enddevice_f103_stm32f10x/aes.o
 .debug_line    0x00000bf9      0x208 build_enddevice_f103_stm32f10x/cmac.o
 .debug_line    0x00000e01      0x21c build_enddevice_f103_stm32f10x/utils.o
 .debug_line    0x0000101d      0x2fc build_enddevice_f103_stm32f10x/xprintf.o
 .debug_line    0x00001319      0x148 build_enddevice_f103_stm32f10x/cmd_line.o
 .debug_line    0x00001461      0x193 build_enddevice_f103_stm32f10x/log_queue.o
 .debug_line    0x000015f4      0x1cc build_enddevice_f103_stm32f10x/led.o
 .debug_line    0x000017c0      0x181 build_enddevice_f103_stm32f10x/button.o
 .debug_line    0x00001941      0x23b build_enddevice_f103_stm32f10x/sys_dbg.o
 .debug_line    0x00001b7c      0x1ed build_enddevice_f103_stm32f10x/system_stm32f10x.o
 .debug_line    0x00001d69      0x3fd build_enddevice_f103_stm32f10x/stm32f10x_gpio.o
 .debug_line    0x00002166      0x4d3 build_enddevice_f103_stm32f10x/stm32f10x_rcc.o
 .debug_line    0x00002639      0x4e2 build_enddevice_f103_stm32f10x/stm32f10x_usart.o
 .debug_line    0x00002b1b      0x46c build_enddevice_f103_stm32f10x/stm32f10x_spi.o
 .debug_line    0x00002f87      0x289 build_enddevice_f103_stm32f10x/misc.o
 .debug_line    0x00003210      0x2ca build_enddevice_f103_stm32f10x/stm32f10x_exti.o
 .debug_line    0x000034da      0xb43 build_enddevice_f103_stm32f10x/stm32f10x_tim.o
 .debug_line    0x0000401d      0x23a build_enddevice_f103_stm32f10x/stm32f10x_iwdg.o
 .debug_line    0x00004257      0x1b4 build_enddevice_f103_stm32f10x/stm32.o
 .debug_line    0x0000440b      0x481 build_enddevice_f103_stm32f10x/system.o
 .debug_line    0x0000488c      0x590 build_enddevice_f103_stm32f10x/sys_cfg.o
 .debug_line    0x00004e1c      0x440 build_enddevice_f103_stm32f10x/io_cfg.o
 .debug_line    0x0000525c      0xd95 build_enddevice_f103_stm32f10x/LoRaMac.o
 .debug_line    0x00005ff1      0x22f build_enddevice_f103_stm32f10x/LoRaMacCrypto.o
 .debug_line    0x00006220      0x7de build_enddevice_f103_stm32f10x/sx1276.o
 .debug_line    0x000069fe      0x2c9 build_enddevice_f103_stm32f10x/sx1276_cfg.o
 .debug_line    0x00006cc7      0x303 build_enddevice_f103_stm32f10x/app.o
 .debug_line    0x00006fca      0x202 build_enddevice_f103_stm32f10x/shell.o
 .debug_line    0x000071cc      0x186 build_enddevice_f103_stm32f10x/app_bsp.o
 .debug_line    0x00007352      0x2c1 build_enddevice_f103_stm32f10x/lorawan.o
 .debug_line    0x00007613      0x1dd build_enddevice_f103_stm32f10x/task_shell.o
 .debug_line    0x000077f0      0x16a build_enddevice_f103_stm32f10x/task_life.o
 .debug_line    0x0000795a      0x118 build_enddevice_f103_stm32f10x/task_list.o
 .debug_line    0x00007a72      0x1de build_enddevice_f103_stm32f10x/task_loramac.o
 .debug_line    0x00007c50      0x18b build_enddevice_f103_stm32f10x/task_ui.o
 .debug_line    0x00007ddb      0x343 build_enddevice_f103_stm32f10x/SPI.o

.debug_str      0x00000000     0x64a5
 .debug_str     0x00000000      0x590 build_enddevice_f103_stm32f10x/message.o
                                0x677 (size before relaxing)
 .debug_str     0x00000590      0x1fa build_enddevice_f103_stm32f10x/task.o
                                0x538 (size before relaxing)
 .debug_str     0x0000078a      0x182 build_enddevice_f103_stm32f10x/timer.o
                                0x481 (size before relaxing)
 .debug_str     0x0000090c       0xe6 build_enddevice_f103_stm32f10x/aes.o
                                0x296 (size before relaxing)
 .debug_str     0x000009f2       0x91 build_enddevice_f103_stm32f10x/cmac.o
                                0x287 (size before relaxing)
 .debug_str     0x00000a83       0x7c build_enddevice_f103_stm32f10x/utils.o
                                0x278 (size before relaxing)
 .debug_str     0x00000aff       0xe1 build_enddevice_f103_stm32f10x/xprintf.o
                                0x2cb (size before relaxing)
 .debug_str     0x00000be0       0x55 build_enddevice_f103_stm32f10x/cmd_line.o
                                0x233 (size before relaxing)
 .debug_str     0x00000c35       0x37 build_enddevice_f103_stm32f10x/log_queue.o
                                0x228 (size before relaxing)
 .debug_str     0x00000c6c       0x9f build_enddevice_f103_stm32f10x/led.o
                                0x26e (size before relaxing)
 .debug_str     0x00000d0b       0xa8 build_enddevice_f103_stm32f10x/button.o
                                0x27d (size before relaxing)
 .debug_str     0x00000db3       0xfd build_enddevice_f103_stm32f10x/sys_dbg.o
                                0x395 (size before relaxing)
 .debug_str     0x00000eb0      0x19c build_enddevice_f103_stm32f10x/system_stm32f10x.o
                                0x37e (size before relaxing)
 .debug_str     0x0000104c      0x38e build_enddevice_f103_stm32f10x/stm32f10x_gpio.o
                                0x5b8 (size before relaxing)
 .debug_str     0x000013da      0x3d2 build_enddevice_f103_stm32f10x/stm32f10x_rcc.o
                                0x6a2 (size before relaxing)
 .debug_str     0x000017ac      0x47e build_enddevice_f103_stm32f10x/stm32f10x_usart.o
                                0x758 (size before relaxing)
 .debug_str     0x00001c2a      0x381 build_enddevice_f103_stm32f10x/stm32f10x_spi.o
                                0x6c5 (size before relaxing)
 .debug_str     0x00001fab      0x1d6 build_enddevice_f103_stm32f10x/misc.o
                                0x446 (size before relaxing)
 .debug_str     0x00002181      0x1c9 build_enddevice_f103_stm32f10x/stm32f10x_exti.o
                                0x3c2 (size before relaxing)
 .debug_str     0x0000234a      0xb7d build_enddevice_f103_stm32f10x/stm32f10x_tim.o
                                0xe78 (size before relaxing)
 .debug_str     0x00002ec7       0xf3 build_enddevice_f103_stm32f10x/stm32f10x_iwdg.o
                                0x2e4 (size before relaxing)
 .debug_str     0x00002fba       0x6c build_enddevice_f103_stm32f10x/stm32.o
                                0x243 (size before relaxing)
 .debug_str     0x00003026      0x2b1 build_enddevice_f103_stm32f10x/system.o
                                0x6bc (size before relaxing)
 .debug_str     0x000032d7      0x4f0 build_enddevice_f103_stm32f10x/sys_cfg.o
                                0xf3d (size before relaxing)
 .debug_str     0x000037c7      0x166 build_enddevice_f103_stm32f10x/io_cfg.o
                                0xaae (size before relaxing)
 .debug_str     0x0000392d     0x1dd7 build_enddevice_f103_stm32f10x/LoRaMac.o
                               0x22f9 (size before relaxing)
 .debug_str     0x00005704       0xb0 build_enddevice_f103_stm32f10x/LoRaMacCrypto.o
                                0x3f9 (size before relaxing)
 .debug_str     0x000057b4      0x5ae build_enddevice_f103_stm32f10x/sx1276.o
                                0xaf6 (size before relaxing)
 .debug_str     0x00005d62       0xfa build_enddevice_f103_stm32f10x/sx1276_cfg.o
                                0x84e (size before relaxing)
 .debug_str     0x00005e5c       0xa3 build_enddevice_f103_stm32f10x/app.o
                                0x5ff (size before relaxing)
 .debug_str     0x00005eff       0x93 build_enddevice_f103_stm32f10x/shell.o
                                0x36e (size before relaxing)
 .debug_str     0x00005f92       0x38 build_enddevice_f103_stm32f10x/app_bsp.o
                                0x371 (size before relaxing)
 .debug_str     0x00005fca       0xc1 build_enddevice_f103_stm32f10x/lorawan.o
                               0x11b0 (size before relaxing)
 .debug_str     0x0000608b       0x51 build_enddevice_f103_stm32f10x/task_shell.o
                                0x414 (size before relaxing)
 .debug_str     0x000060dc       0x44 build_enddevice_f103_stm32f10x/task_life.o
                                0x370 (size before relaxing)
 .debug_str     0x00006120       0x1a build_enddevice_f103_stm32f10x/task_list.o
                                0x2dd (size before relaxing)
 .debug_str     0x0000613a       0xbe build_enddevice_f103_stm32f10x/task_loramac.o
                                0x431 (size before relaxing)
 .debug_str     0x000061f8       0x35 build_enddevice_f103_stm32f10x/task_ui.o
                                0x37c (size before relaxing)
 .debug_str     0x0000622d      0x278 build_enddevice_f103_stm32f10x/SPI.o
                                0x7df (size before relaxing)

.comment        0x00000000       0x6e
 .comment       0x00000000       0x6e build_enddevice_f103_stm32f10x/message.o
                                 0x6f (size before relaxing)
 .comment       0x0000006e       0x6f build_enddevice_f103_stm32f10x/task.o
 .comment       0x0000006e       0x6f build_enddevice_f103_stm32f10x/timer.o
 .comment       0x0000006e       0x6f build_enddevice_f103_stm32f10x/aes.o
 .comment       0x0000006e       0x6f build_enddevice_f103_stm32f10x/cmac.o
 .comment       0x0000006e       0x6f build_enddevice_f103_stm32f10x/utils.o
 .comment       0x0000006e       0x6f build_enddevice_f103_stm32f10x/xprintf.o
 .comment       0x0000006e       0x6f build_enddevice_f103_stm32f10x/cmd_line.o
 .comment       0x0000006e       0x6f build_enddevice_f103_stm32f10x/log_queue.o
 .comment       0x0000006e       0x6f build_enddevice_f103_stm32f10x/led.o
 .comment       0x0000006e       0x6f build_enddevice_f103_stm32f10x/button.o
 .comment       0x0000006e       0x6f build_enddevice_f103_stm32f10x/sys_dbg.o
 .comment       0x0000006e       0x6f build_enddevice_f103_stm32f10x/system_stm32f10x.o
 .comment       0x0000006e       0x6f build_enddevice_f103_stm32f10x/stm32f10x_gpio.o
 .comment       0x0000006e       0x6f build_enddevice_f103_stm32f10x/stm32f10x_rcc.o
 .comment       0x0000006e       0x6f build_enddevice_f103_stm32f10x/stm32f10x_usart.o
 .comment       0x0000006e       0x6f build_enddevice_f103_stm32f10x/stm32f10x_spi.o
 .comment       0x0000006e       0x6f build_enddevice_f103_stm32f10x/misc.o
 .comment       0x0000006e       0x6f build_enddevice_f103_stm32f10x/stm32f10x_exti.o
 .comment       0x0000006e       0x6f build_enddevice_f103_stm32f10x/stm32f10x_tim.o
 .comment       0x0000006e       0x6f build_enddevice_f103_stm32f10x/stm32f10x_iwdg.o
 .comment       0x0000006e       0x6f build_enddevice_f103_stm32f10x/stm32.o
 .comment       0x0000006e       0x6f build_enddevice_f103_stm32f10x/system.o
 .comment       0x0000006e       0x6f build_enddevice_f103_stm32f10x/sys_cfg.o
 .comment       0x0000006e       0x6f build_enddevice_f103_stm32f10x/io_cfg.o
 .comment       0x0000006e       0x6f build_enddevice_f103_stm32f10x/LoRaMac.o
 .comment       0x0000006e       0x6f build_enddevice_f103_stm32f10x/LoRaMacCrypto.o
 .comment       0x0000006e       0x6f build_enddevice_f103_stm32f10x/sx1276.o
 .comment       0x0000006e       0x6f build_enddevice_f103_stm32f10x/sx1276_cfg.o
 .comment       0x0000006e       0x6f build_enddevice_f103_stm32f10x/app.o
 .comment       0x0000006e       0x6f build_enddevice_f103_stm32f10x/shell.o
 .comment       0x0000006e       0x6f build_enddevice_f103_stm32f10x/app_bsp.o
 .comment       0x0000006e       0x6f build_enddevice_f103_stm32f10x/lorawan.o
 .comment       0x0000006e       0x6f build_enddevice_f103_stm32f10x/task_shell.o
 .comment       0x0000006e       0x6f build_enddevice_f103_stm32f10x/task_life.o
 .comment       0x0000006e       0x6f build_enddevice_f103_stm32f10x/task_list.o
 .comment       0x0000006e       0x6f build_enddevice_f103_stm32f10x/task_loramac.o
 .comment       0x0000006e       0x6f build_enddevice_f103_stm32f10x/task_ui.o
 .comment       0x0000006e       0x6f build_enddevice_f103_stm32f10x/SPI.o

.ARM.attributes
                0x00000000       0x31
 .ARM.attributes
                0x00000000       0x33 build_enddevice_f103_stm32f10x/message.o
 .ARM.attributes
                0x00000033       0x33 build_enddevice_f103_stm32f10x/task.o
 .ARM.attributes
                0x00000066       0x33 build_enddevice_f103_stm32f10x/timer.o
 .ARM.attributes
                0x00000099       0x33 build_enddevice_f103_stm32f10x/aes.o
 .ARM.attributes
                0x000000cc       0x33 build_enddevice_f103_stm32f10x/cmac.o
 .ARM.attributes
                0x000000ff       0x33 build_enddevice_f103_stm32f10x/utils.o
 .ARM.attributes
                0x00000132       0x33 build_enddevice_f103_stm32f10x/xprintf.o
 .ARM.attributes
                0x00000165       0x33 build_enddevice_f103_stm32f10x/cmd_line.o
 .ARM.attributes
                0x00000198       0x33 build_enddevice_f103_stm32f10x/log_queue.o
 .ARM.attributes
                0x000001cb       0x33 build_enddevice_f103_stm32f10x/led.o
 .ARM.attributes
                0x000001fe       0x33 build_enddevice_f103_stm32f10x/button.o
 .ARM.attributes
                0x00000231       0x33 build_enddevice_f103_stm32f10x/sys_dbg.o
 .ARM.attributes
                0x00000264       0x33 build_enddevice_f103_stm32f10x/system_stm32f10x.o
 .ARM.attributes
                0x00000297       0x33 build_enddevice_f103_stm32f10x/stm32f10x_gpio.o
 .ARM.attributes
                0x000002ca       0x33 build_enddevice_f103_stm32f10x/stm32f10x_rcc.o
 .ARM.attributes
                0x000002fd       0x33 build_enddevice_f103_stm32f10x/stm32f10x_usart.o
 .ARM.attributes
                0x00000330       0x33 build_enddevice_f103_stm32f10x/stm32f10x_spi.o
 .ARM.attributes
                0x00000363       0x33 build_enddevice_f103_stm32f10x/misc.o
 .ARM.attributes
                0x00000396       0x33 build_enddevice_f103_stm32f10x/stm32f10x_exti.o
 .ARM.attributes
                0x000003c9       0x33 build_enddevice_f103_stm32f10x/stm32f10x_tim.o
 .ARM.attributes
                0x000003fc       0x33 build_enddevice_f103_stm32f10x/stm32f10x_iwdg.o
 .ARM.attributes
                0x0000042f       0x33 build_enddevice_f103_stm32f10x/stm32.o
 .ARM.attributes
                0x00000462       0x33 build_enddevice_f103_stm32f10x/system.o
 .ARM.attributes
                0x00000495       0x33 build_enddevice_f103_stm32f10x/sys_cfg.o
 .ARM.attributes
                0x000004c8       0x33 build_enddevice_f103_stm32f10x/io_cfg.o
 .ARM.attributes
                0x000004fb       0x33 build_enddevice_f103_stm32f10x/LoRaMac.o
 .ARM.attributes
                0x0000052e       0x33 build_enddevice_f103_stm32f10x/LoRaMacCrypto.o
 .ARM.attributes
                0x00000561       0x33 build_enddevice_f103_stm32f10x/sx1276.o
 .ARM.attributes
                0x00000594       0x33 build_enddevice_f103_stm32f10x/sx1276_cfg.o
 .ARM.attributes
                0x000005c7       0x33 build_enddevice_f103_stm32f10x/app.o
 .ARM.attributes
                0x000005fa       0x33 build_enddevice_f103_stm32f10x/shell.o
 .ARM.attributes
                0x0000062d       0x33 build_enddevice_f103_stm32f10x/app_bsp.o
 .ARM.attributes
                0x00000660       0x33 build_enddevice_f103_stm32f10x/lorawan.o
 .ARM.attributes
                0x00000693       0x33 build_enddevice_f103_stm32f10x/task_shell.o
 .ARM.attributes
                0x000006c6       0x33 build_enddevice_f103_stm32f10x/task_life.o
 .ARM.attributes
                0x000006f9       0x33 build_enddevice_f103_stm32f10x/task_list.o
 .ARM.attributes
                0x0000072c       0x33 build_enddevice_f103_stm32f10x/task_loramac.o
 .ARM.attributes
                0x0000075f       0x33 build_enddevice_f103_stm32f10x/task_ui.o
 .ARM.attributes
                0x00000792       0x33 build_enddevice_f103_stm32f10x/SPI.o
 .ARM.attributes
                0x000007c5       0x1b /home/binhnt/opt/gcc-arm-none-eabi-5_4-2016q3/arm-none-eabi/lib/armv7-m/libc.a(lib_a-memcpy.o)
 .ARM.attributes
                0x000007e0       0x2d /home/binhnt/opt/gcc-arm-none-eabi-5_4-2016q3/arm-none-eabi/lib/armv7-m/libc.a(lib_a-memset.o)
 .ARM.attributes
                0x0000080d       0x2d /home/binhnt/opt/gcc-arm-none-eabi-5_4-2016q3/arm-none-eabi/lib/armv7-m/libm.a(lib_a-s_ceil.o)
 .ARM.attributes
                0x0000083a       0x2d /home/binhnt/opt/gcc-arm-none-eabi-5_4-2016q3/arm-none-eabi/lib/armv7-m/libm.a(lib_a-s_floor.o)
 .ARM.attributes
                0x00000867       0x1d /home/binhnt/opt/gcc-arm-none-eabi-5_4-2016q3/lib/gcc/arm-none-eabi/5.4.1/armv7-m/libgcc.a(_arm_addsubdf3.o)
 .ARM.attributes
                0x00000884       0x1d /home/binhnt/opt/gcc-arm-none-eabi-5_4-2016q3/lib/gcc/arm-none-eabi/5.4.1/armv7-m/libgcc.a(_arm_muldivdf3.o)
 .ARM.attributes
                0x000008a1       0x1d /home/binhnt/opt/gcc-arm-none-eabi-5_4-2016q3/lib/gcc/arm-none-eabi/5.4.1/armv7-m/libgcc.a(_arm_cmpdf2.o)
 .ARM.attributes
                0x000008be       0x1d /home/binhnt/opt/gcc-arm-none-eabi-5_4-2016q3/lib/gcc/arm-none-eabi/5.4.1/armv7-m/libgcc.a(_arm_fixdfsi.o)
 .ARM.attributes
                0x000008db       0x1d /home/binhnt/opt/gcc-arm-none-eabi-5_4-2016q3/lib/gcc/arm-none-eabi/5.4.1/armv7-m/libgcc.a(_arm_fixunsdfsi.o)

.debug_frame    0x00000000     0x2c94
 .debug_frame   0x00000000      0x194 build_enddevice_f103_stm32f10x/message.o
 .debug_frame   0x00000194      0x134 build_enddevice_f103_stm32f10x/task.o
 .debug_frame   0x000002c8       0xc0 build_enddevice_f103_stm32f10x/timer.o
 .debug_frame   0x00000388       0xac build_enddevice_f103_stm32f10x/aes.o
 .debug_frame   0x00000434       0x84 build_enddevice_f103_stm32f10x/cmac.o
 .debug_frame   0x000004b8       0xac build_enddevice_f103_stm32f10x/utils.o
 .debug_frame   0x00000564      0x11c build_enddevice_f103_stm32f10x/xprintf.o
 .debug_frame   0x00000680       0x34 build_enddevice_f103_stm32f10x/cmd_line.o
 .debug_frame   0x000006b4       0x70 build_enddevice_f103_stm32f10x/log_queue.o
 .debug_frame   0x00000724       0xa8 build_enddevice_f103_stm32f10x/led.o
 .debug_frame   0x000007cc       0x68 build_enddevice_f103_stm32f10x/button.o
 .debug_frame   0x00000834       0x28 build_enddevice_f103_stm32f10x/sys_dbg.o
 .debug_frame   0x0000085c       0x3c build_enddevice_f103_stm32f10x/system_stm32f10x.o
 .debug_frame   0x00000898      0x170 build_enddevice_f103_stm32f10x/stm32f10x_gpio.o
 .debug_frame   0x00000a08      0x220 build_enddevice_f103_stm32f10x/stm32f10x_rcc.o
 .debug_frame   0x00000c28      0x224 build_enddevice_f103_stm32f10x/stm32f10x_usart.o
 .debug_frame   0x00000e4c      0x1bc build_enddevice_f103_stm32f10x/stm32f10x_spi.o
 .debug_frame   0x00001008       0x68 build_enddevice_f103_stm32f10x/misc.o
 .debug_frame   0x00001070       0x9c build_enddevice_f103_stm32f10x/stm32f10x_exti.o
 .debug_frame   0x0000110c      0x6b4 build_enddevice_f103_stm32f10x/stm32f10x_tim.o
 .debug_frame   0x000017c0       0x70 build_enddevice_f103_stm32f10x/stm32f10x_iwdg.o
 .debug_frame   0x00001830       0x50 build_enddevice_f103_stm32f10x/stm32.o
 .debug_frame   0x00001880      0x13c build_enddevice_f103_stm32f10x/system.o
 .debug_frame   0x000019bc      0x1c8 build_enddevice_f103_stm32f10x/sys_cfg.o
 .debug_frame   0x00001b84      0x1b4 build_enddevice_f103_stm32f10x/io_cfg.o
 .debug_frame   0x00001d38      0x47c build_enddevice_f103_stm32f10x/LoRaMac.o
 .debug_frame   0x000021b4       0xe8 build_enddevice_f103_stm32f10x/LoRaMacCrypto.o
 .debug_frame   0x0000229c      0x488 build_enddevice_f103_stm32f10x/sx1276.o
 .debug_frame   0x00002724       0xc4 build_enddevice_f103_stm32f10x/sx1276_cfg.o
 .debug_frame   0x000027e8       0x4c build_enddevice_f103_stm32f10x/app.o
 .debug_frame   0x00002834       0x88 build_enddevice_f103_stm32f10x/shell.o
 .debug_frame   0x000028bc       0x34 build_enddevice_f103_stm32f10x/app_bsp.o
 .debug_frame   0x000028f0       0xe4 build_enddevice_f103_stm32f10x/lorawan.o
 .debug_frame   0x000029d4       0x54 build_enddevice_f103_stm32f10x/task_shell.o
 .debug_frame   0x00002a28       0x30 build_enddevice_f103_stm32f10x/task_life.o
 .debug_frame   0x00002a58       0x80 build_enddevice_f103_stm32f10x/task_loramac.o
 .debug_frame   0x00002ad8       0x34 build_enddevice_f103_stm32f10x/task_ui.o
 .debug_frame   0x00002b0c       0xec build_enddevice_f103_stm32f10x/SPI.o
 .debug_frame   0x00002bf8       0x34 /home/binhnt/opt/gcc-arm-none-eabi-5_4-2016q3/arm-none-eabi/lib/armv7-m/libc.a(lib_a-memset.o)
 .debug_frame   0x00002c2c       0x34 /home/binhnt/opt/gcc-arm-none-eabi-5_4-2016q3/arm-none-eabi/lib/armv7-m/libm.a(lib_a-s_ceil.o)
 .debug_frame   0x00002c60       0x34 /home/binhnt/opt/gcc-arm-none-eabi-5_4-2016q3/arm-none-eabi/lib/armv7-m/libm.a(lib_a-s_floor.o)
